{
  "_format": "hh-sol-artifact-1",
  "contractName": "VaultFactory",
  "sourceName": "contracts/VaultFactory.sol",
  "abi": [
    {
      "inputs": [
        {
          "internalType": "contract ICompoundERC20",
          "name": "_sourceToken",
          "type": "address"
        },
        {
          "internalType": "contract ICompoundGovernorAlpha",
          "name": "_governorAlpha",
          "type": "address"
        },
        {
          "internalType": "uint256",
          "name": "_epochSize",
          "type": "uint256"
        }
      ],
      "stateMutability": "nonpayable",
      "type": "constructor"
    },
    {
      "anonymous": false,
      "inputs": [
        {
          "indexed": false,
          "internalType": "address",
          "name": "closer",
          "type": "address"
        },
        {
          "indexed": false,
          "internalType": "uint256",
          "name": "vaultId",
          "type": "uint256"
        },
        {
          "indexed": false,
          "internalType": "address",
          "name": "vaultAddress",
          "type": "address"
        }
      ],
      "name": "ExpiredVaultClosed",
      "type": "event"
    },
    {
      "anonymous": false,
      "inputs": [
        {
          "indexed": true,
          "internalType": "bytes32",
          "name": "role",
          "type": "bytes32"
        },
        {
          "indexed": true,
          "internalType": "bytes32",
          "name": "previousAdminRole",
          "type": "bytes32"
        },
        {
          "indexed": true,
          "internalType": "bytes32",
          "name": "newAdminRole",
          "type": "bytes32"
        }
      ],
      "name": "RoleAdminChanged",
      "type": "event"
    },
    {
      "anonymous": false,
      "inputs": [
        {
          "indexed": true,
          "internalType": "bytes32",
          "name": "role",
          "type": "bytes32"
        },
        {
          "indexed": true,
          "internalType": "address",
          "name": "account",
          "type": "address"
        },
        {
          "indexed": true,
          "internalType": "address",
          "name": "sender",
          "type": "address"
        }
      ],
      "name": "RoleGranted",
      "type": "event"
    },
    {
      "anonymous": false,
      "inputs": [
        {
          "indexed": true,
          "internalType": "bytes32",
          "name": "role",
          "type": "bytes32"
        },
        {
          "indexed": true,
          "internalType": "address",
          "name": "account",
          "type": "address"
        },
        {
          "indexed": true,
          "internalType": "address",
          "name": "sender",
          "type": "address"
        }
      ],
      "name": "RoleRevoked",
      "type": "event"
    },
    {
      "anonymous": false,
      "inputs": [
        {
          "indexed": false,
          "internalType": "address",
          "name": "owner",
          "type": "address"
        },
        {
          "indexed": false,
          "internalType": "uint256",
          "name": "vaultId",
          "type": "uint256"
        },
        {
          "indexed": false,
          "internalType": "address",
          "name": "vaultAddress",
          "type": "address"
        }
      ],
      "name": "VaultClosedByOwner",
      "type": "event"
    },
    {
      "anonymous": false,
      "inputs": [
        {
          "indexed": false,
          "internalType": "address",
          "name": "creator",
          "type": "address"
        },
        {
          "indexed": false,
          "internalType": "uint256",
          "name": "amount",
          "type": "uint256"
        },
        {
          "indexed": false,
          "internalType": "uint256",
          "name": "vaultId",
          "type": "uint256"
        },
        {
          "indexed": false,
          "internalType": "address",
          "name": "vaultAddress",
          "type": "address"
        }
      ],
      "name": "VaultCreated",
      "type": "event"
    },
    {
      "inputs": [],
      "name": "DEFAULT_ADMIN_ROLE",
      "outputs": [
        {
          "internalType": "bytes32",
          "name": "",
          "type": "bytes32"
        }
      ],
      "stateMutability": "view",
      "type": "function"
    },
    {
      "inputs": [
        {
          "internalType": "address",
          "name": "_address",
          "type": "address"
        }
      ],
      "name": "addressNFTBalance",
      "outputs": [
        {
          "internalType": "uint256",
          "name": "",
          "type": "uint256"
        }
      ],
      "stateMutability": "view",
      "type": "function"
    },
    {
      "inputs": [
        {
          "internalType": "uint256",
          "name": "vaultId",
          "type": "uint256"
        }
      ],
      "name": "closeExpiredVault",
      "outputs": [],
      "stateMutability": "nonpayable",
      "type": "function"
    },
    {
      "inputs": [
        {
          "internalType": "uint256",
          "name": "vaultId",
          "type": "uint256"
        }
      ],
      "name": "closeOwnVault",
      "outputs": [],
      "stateMutability": "nonpayable",
      "type": "function"
    },
    {
      "inputs": [
        {
          "internalType": "uint256",
          "name": "amount",
          "type": "uint256"
        }
      ],
      "name": "createVault",
      "outputs": [],
      "stateMutability": "nonpayable",
      "type": "function"
    },
    {
      "inputs": [],
      "name": "currentEpochExpiry",
      "outputs": [
        {
          "internalType": "uint256",
          "name": "",
          "type": "uint256"
        }
      ],
      "stateMutability": "view",
      "type": "function"
    },
    {
      "inputs": [],
      "name": "epochSize",
      "outputs": [
        {
          "internalType": "uint256",
          "name": "",
          "type": "uint256"
        }
      ],
      "stateMutability": "view",
      "type": "function"
    },
    {
      "inputs": [
        {
          "internalType": "bytes32",
          "name": "role",
          "type": "bytes32"
        }
      ],
      "name": "getRoleAdmin",
      "outputs": [
        {
          "internalType": "bytes32",
          "name": "",
          "type": "bytes32"
        }
      ],
      "stateMutability": "view",
      "type": "function"
    },
    {
      "inputs": [
        {
          "internalType": "bytes32",
          "name": "role",
          "type": "bytes32"
        },
        {
          "internalType": "uint256",
          "name": "index",
          "type": "uint256"
        }
      ],
      "name": "getRoleMember",
      "outputs": [
        {
          "internalType": "address",
          "name": "",
          "type": "address"
        }
      ],
      "stateMutability": "view",
      "type": "function"
    },
    {
      "inputs": [
        {
          "internalType": "bytes32",
          "name": "role",
          "type": "bytes32"
        }
      ],
      "name": "getRoleMemberCount",
      "outputs": [
        {
          "internalType": "uint256",
          "name": "",
          "type": "uint256"
        }
      ],
      "stateMutability": "view",
      "type": "function"
    },
    {
      "inputs": [],
      "name": "governorAlpha",
      "outputs": [
        {
          "internalType": "contract ICompoundGovernorAlpha",
          "name": "",
          "type": "address"
        }
      ],
      "stateMutability": "view",
      "type": "function"
    },
    {
      "inputs": [
        {
          "internalType": "bytes32",
          "name": "role",
          "type": "bytes32"
        },
        {
          "internalType": "address",
          "name": "account",
          "type": "address"
        }
      ],
      "name": "grantRole",
      "outputs": [],
      "stateMutability": "nonpayable",
      "type": "function"
    },
    {
      "inputs": [
        {
          "internalType": "bytes32",
          "name": "role",
          "type": "bytes32"
        },
        {
          "internalType": "address",
          "name": "account",
          "type": "address"
        }
      ],
      "name": "hasRole",
      "outputs": [
        {
          "internalType": "bool",
          "name": "",
          "type": "bool"
        }
      ],
      "stateMutability": "view",
      "type": "function"
    },
    {
      "inputs": [],
      "name": "nftSupply",
      "outputs": [
        {
          "internalType": "uint256",
          "name": "",
          "type": "uint256"
        }
      ],
      "stateMutability": "view",
      "type": "function"
    },
    {
      "inputs": [
        {
          "internalType": "bytes32",
          "name": "role",
          "type": "bytes32"
        },
        {
          "internalType": "address",
          "name": "account",
          "type": "address"
        }
      ],
      "name": "renounceRole",
      "outputs": [],
      "stateMutability": "nonpayable",
      "type": "function"
    },
    {
      "inputs": [
        {
          "internalType": "bytes32",
          "name": "role",
          "type": "bytes32"
        },
        {
          "internalType": "address",
          "name": "account",
          "type": "address"
        }
      ],
      "name": "revokeRole",
      "outputs": [],
      "stateMutability": "nonpayable",
      "type": "function"
    },
    {
      "inputs": [],
      "name": "sourceToken",
      "outputs": [
        {
          "internalType": "contract ICompoundERC20",
          "name": "",
          "type": "address"
        }
      ],
      "stateMutability": "view",
      "type": "function"
    },
    {
      "inputs": [
        {
          "internalType": "uint256",
          "name": "",
          "type": "uint256"
        }
      ],
      "name": "vaultMapping",
      "outputs": [
        {
          "internalType": "contract Vault",
          "name": "",
          "type": "address"
        }
      ],
      "stateMutability": "view",
      "type": "function"
    },
    {
      "inputs": [],
      "name": "vaultNFT",
      "outputs": [
        {
          "internalType": "contract VaultNFT",
          "name": "",
          "type": "address"
        }
      ],
      "stateMutability": "view",
      "type": "function"
    },
    {
      "inputs": [
        {
          "internalType": "uint256",
          "name": "",
          "type": "uint256"
        }
      ],
      "name": "vaultToAddress",
      "outputs": [
        {
          "internalType": "address",
          "name": "",
          "type": "address"
        }
      ],
      "stateMutability": "view",
      "type": "function"
    },
    {
      "inputs": [
        {
          "internalType": "uint256",
          "name": "",
          "type": "uint256"
        }
      ],
      "name": "vaultToExpiryEpochs",
      "outputs": [
        {
          "internalType": "uint256",
          "name": "",
          "type": "uint256"
        }
      ],
      "stateMutability": "view",
      "type": "function"
    },
    {
      "inputs": [],
      "name": "vaultToken",
      "outputs": [
        {
          "internalType": "contract VaultToken",
          "name": "",
          "type": "address"
        }
      ],
      "stateMutability": "view",
      "type": "function"
    }
  ],
  "bytecode": "0x60806040523480156200001157600080fd5b506040516200662038038062006620833981810160405260608110156200003757600080fd5b5080516020820151604092830151600181905592519192909130906200005d9062000131565b6001600160a01b03909116815260405190819003602001906000f0801580156200008b573d6000803e3d6000fd5b50600280546001600160a01b0319166001600160a01b03929092169190911790556040513090620000bc906200013f565b6001600160a01b03909116815260405190819003602001906000f080158015620000ea573d6000803e3d6000fd5b50600380546001600160a01b03199081166001600160a01b03938416179091556004805482169583169590951790945560058054909416921691909117909155506200014d565b6117cb80620026f683390190565b61275f8062003ec183390190565b612599806200015d6000396000f3fe608060405234801561001057600080fd5b50600436106101425760003560e01c80638eb650b8116100b8578063a217fddf1161007c578063a217fddf14610319578063c5b45b8114610321578063ca15c8731461033e578063d547741f1461035b578063fd43008514610387578063ffd0b34e1461038f57610142565b80638eb650b8146102565780639010d07c1461027357806391d14854146102965780639abbdf4b146102d6578063a0263b28146102f357610142565b80634b0de93f1161010a5780634b0de93f14610211578063501ed84514610219578063572d356e146102365780635f8aaa691461023e578063703bafd51461024657806384dea1a11461024e57610142565b806301790e0114610147578063248a9ca3146101615780632f2c4f381461017e5780632f2ff15d146101b757806336568abe146101e5575b600080fd5b61014f6103ac565b60408051918252519081900360200190f35b61014f6004803603602081101561017757600080fd5b5035610422565b61019b6004803603602081101561019457600080fd5b5035610437565b604080516001600160a01b039092168252519081900360200190f35b6101e3600480360360408110156101cd57600080fd5b50803590602001356001600160a01b0316610452565b005b6101e3600480360360408110156101fb57600080fd5b50803590602001356001600160a01b03166104be565b61014f61051f565b61019b6004803603602081101561022f57600080fd5b5035610552565b61014f61056d565b61019b610573565b61019b610582565b61019b610591565b6101e36004803603602081101561026c57600080fd5b50356105a0565b61019b6004803603604081101561028957600080fd5b508035906020013561077f565b6102c2600480360360408110156102ac57600080fd5b50803590602001356001600160a01b03166107a0565b604080519115158252519081900360200190f35b6101e3600480360360208110156102ec57600080fd5b50356107b8565b61014f6004803603602081101561030957600080fd5b50356001600160a01b0316610be1565b61014f610c64565b6101e36004803603602081101561033757600080fd5b5035610c69565b61014f6004803603602081101561035457600080fd5b5035610d92565b6101e36004803603604081101561037157600080fd5b50803590602001356001600160a01b0316610da9565b61019b610e02565b61014f600480360360208110156103a557600080fd5b5035610e11565b600354604080516318160ddd60e01b815290516000926001600160a01b0316916318160ddd916004808301926020929190829003018186803b1580156103f157600080fd5b505afa158015610405573d6000803e3d6000fd5b505050506040513d602081101561041b57600080fd5b5051905090565b60009081526020819052604090206002015490565b6006602052600090815260409020546001600160a01b031681565b60008281526020819052604090206002015461047590610470610e23565b6107a0565b6104b05760405162461bcd60e51b815260040180806020018281038252602f815260200180612465602f913960400191505060405180910390fd5b6104ba8282610e27565b5050565b6104c6610e23565b6001600160a01b0316816001600160a01b0316146105155760405162461bcd60e51b815260040180806020018281038252602f815260200180612535602f913960400191505060405180910390fd5b6104ba8282610e90565b600061054d600154610547600161054160015443610ef990919063ffffffff16565b90610f3b565b90610f95565b905090565b6008602052600090815260409020546001600160a01b031681565b60015481565b6004546001600160a01b031681565b6002546001600160a01b031681565b6003546001600160a01b031681565b6000818152600760205260409020546105f6576040805162461bcd60e51b815260206004820152601360248201527215985d5b1d08191bd95cdb89dd08195e1a5cdd606a1b604482015290519081900360640190fd5b6000818152600760205260409020544311610650576040805162461bcd60e51b815260206004820152601560248201527415985d5b1d081b9bdd081e595d08195e1c1a5c9959605a1b604482015290519081900360640190fd5b600354604080516331a9108f60e11b81526004810184905290516000926001600160a01b031691636352211e916024808301926020929190829003018186803b15801561069c57600080fd5b505afa1580156106b0573d6000803e3d6000fd5b505050506040513d60208110156106c657600080fd5b50516001600160a01b0316141561071b576040805162461bcd60e51b815260206004820152601460248201527315985d5b1d08185b1c9958591e4818db1bdcd95960621b604482015290519081900360640190fd5b6107258133610fee565b6000818152600660209081526040918290205482513381529182018490526001600160a01b03168183015290517f7a07da51811fbf651603aa3d5f57b590527d15b888c0b6565f8a42918b75846e9181900360600190a150565b60008281526020819052604081206107979083611365565b90505b92915050565b60008281526020819052604081206107979083611371565b600354604080516335313c2160e11b815233600482015290516000926001600160a01b031691636a62784291602480830192602092919082900301818787803b15801561080457600080fd5b505af1158015610818573d6000803e3d6000fd5b505050506040513d602081101561082e57600080fd5b50516004546005546003546040519394506000936001600160a01b03938416939283169290911690859061086190611980565b80856001600160a01b03168152602001846001600160a01b03168152602001836001600160a01b03168152602001828152602001945050505050604051809103906000f0801580156108b7573d6000803e3d6000fd5b5090506000600460009054906101000a90046001600160a01b03166001600160a01b03166370a08231836040518263ffffffff1660e01b815260040180826001600160a01b0316815260200191505060206040518083038186803b15801561091e57600080fd5b505afa158015610932573d6000803e3d6000fd5b505050506040513d602081101561094857600080fd5b5051600454909150610965906001600160a01b0316338487611386565b600460009054906101000a90046001600160a01b03166001600160a01b0316635c19a95c836040518263ffffffff1660e01b815260040180826001600160a01b03168152602001915050600060405180830381600087803b1580156109c957600080fd5b505af11580156109dd573d6000803e3d6000fd5b505050506000600460009054906101000a90046001600160a01b03166001600160a01b03166370a08231846040518263ffffffff1660e01b815260040180826001600160a01b0316815260200191505060206040518083038186803b158015610a4557600080fd5b505afa158015610a59573d6000803e3d6000fd5b505050506040513d6020811015610a6f57600080fd5b5051905084610a7e82846113e6565b14610ac4576040805162461bcd60e51b815260206004820152601160248201527057686572652773206d79206d6f6e65793f60781b604482015290519081900360640190fd5b600254604080516340c10f1960e01b81523360048201526024810188905290516001600160a01b03909216916340c10f199160448082019260009290919082900301818387803b158015610b1757600080fd5b505af1158015610b2b573d6000803e3d6000fd5b505050600085815260066020526040902080546001600160a01b0319166001600160a01b03861617905550610b5e61051f565b600085815260076020908152604080832093909355600881529082902080546001600160a01b0319163390811790915582519081529081018790528082018690526001600160a01b038516606082015290517ff9f9e3d891e97875fbbb464ae6f115fe58122a39c6f0ca91b144eadd7b7a7e799181900360800190a15050505050565b600354604080516370a0823160e01b81526001600160a01b038481166004830152915160009392909216916370a0823191602480820192602092909190829003018186803b158015610c3257600080fd5b505afa158015610c46573d6000803e3d6000fd5b505050506040513d6020811015610c5c57600080fd5b505192915050565b600081565b600354604080516331a9108f60e11b81526004810184905290516001600160a01b0390921691636352211e91602480820192602092909190829003018186803b158015610cb557600080fd5b505afa158015610cc9573d6000803e3d6000fd5b505050506040513d6020811015610cdf57600080fd5b50516001600160a01b03163314610d2e576040805162461bcd60e51b815260206004820152600e60248201526d2737ba103cb7bab91039ba3ab33360911b604482015290519081900360640190fd5b610d388133610fee565b6000818152600660209081526040918290205482513381529182018490526001600160a01b03168183015290517fd86d9ef8b6e88a450b8da91878c2e2c870cce43d0acbbcdc3f694527b4a14b589181900360600190a150565b600081815260208190526040812061079a90611428565b600082815260208190526040902060020154610dc790610470610e23565b6105155760405162461bcd60e51b81526004018080602001828103825260308152602001806124ba6030913960400191505060405180910390fd5b6005546001600160a01b031681565b60076020526000908152604090205481565b3390565b6000828152602081905260409020610e3f9082611433565b156104ba57610e4c610e23565b6001600160a01b0316816001600160a01b0316837f2f8788117e7eff1d82e926ec794901d17c78024a50270940304540a733656f0d60405160405180910390a45050565b6000828152602081905260409020610ea89082611448565b156104ba57610eb5610e23565b6001600160a01b0316816001600160a01b0316837ff6391f5c32d9c69d2a47ea670b442974b53935d1edc7fd64eb21e047a839171b60405160405180910390a45050565b600061079783836040518060400160405280601a81526020017f536166654d6174683a206469766973696f6e206279207a65726f00000000000081525061145d565b600082820183811015610797576040805162461bcd60e51b815260206004820152601b60248201527f536166654d6174683a206164646974696f6e206f766572666c6f770000000000604482015290519081900360640190fd5b600082610fa45750600061079a565b82820282848281610fb157fe5b04146107975760405162461bcd60e51b81526004018080602001828103825260218152602001806124ea6021913960400191505060405180910390fd5b6000828152600660209081526040808320546004805483516370a0823160e01b81526001600160a01b0393841692810183905293519195949216926370a08231926024808301939192829003018186803b15801561104b57600080fd5b505afa15801561105f573d6000803e3d6000fd5b505050506040513d602081101561107557600080fd5b5051600254604080516370a0823160e01b81526001600160a01b038781166004830152915193945060009391909216916370a08231916024808301926020929190829003018186803b1580156110ca57600080fd5b505afa1580156110de573d6000803e3d6000fd5b505050506040513d60208110156110f457600080fd5b505190508181101561114d576040805162461bcd60e51b815260206004820181905260248201527f4e6f7420656e6f75676820746f6b656e7320746f20636c6f7365207661756c74604482015290519081900360640190fd5b60025460408051632770a7eb60e21b81526001600160a01b0387811660048301526024820185905291519190921691639dc29fac91604480830192600092919082900301818387803b1580156111a257600080fd5b505af11580156111b6573d6000803e3d6000fd5b5050600254604080516370a0823160e01b81526001600160a01b0388811660048301529151600095509190921692506370a0823191602480820192602092909190829003018186803b15801561120b57600080fd5b505afa15801561121f573d6000803e3d6000fd5b505050506040513d602081101561123557600080fd5b505190508061124483856113e6565b1461128a576040805162461bcd60e51b815260206004820152601160248201527057686572652773206d79206d6f6e65793f60781b604482015290519081900360640190fd5b60035460408051630852cd8d60e31b81526004810189905290516001600160a01b03909216916342966c689160248082019260009290919082900301818387803b1580156112d757600080fd5b505af11580156112eb573d6000803e3d6000fd5b50505060008781526006602052604080822054815163c74073a160e01b81526001600160a01b038a81166004830152925192909116935063c74073a192602480830193919282900301818387803b15801561134557600080fd5b505af1158015611359573d6000803e3d6000fd5b50505050505050505050565b60006107978383611501565b6000610797836001600160a01b038416611565565b604080516001600160a01b0380861660248301528416604482015260648082018490528251808303909101815260849091019091526020810180516001600160e01b03166323b872dd60e01b1790526113e090859061157d565b50505050565b600061079783836040518060400160405280601e81526020017f536166654d6174683a207375627472616374696f6e206f766572666c6f770000815250611633565b600061079a8261168d565b6000610797836001600160a01b038416611691565b6000610797836001600160a01b0384166116db565b600081836114e95760405162461bcd60e51b81526004018080602001828103825283818151815260200191508051906020019080838360005b838110156114ae578181015183820152602001611496565b50505050905090810190601f1680156114db5780820380516001836020036101000a031916815260200191505b509250505060405180910390fd5b5060008385816114f557fe5b049150505b9392505050565b815460009082106115435760405162461bcd60e51b81526004018080602001828103825260228152602001806124436022913960400191505060405180910390fd5b82600001828154811061155257fe5b9060005260206000200154905092915050565b60009081526001919091016020526040902054151590565b60606115d2826040518060400160405280602081526020017f5361666545524332303a206c6f772d6c6576656c2063616c6c206661696c6564815250856001600160a01b03166117a19092919063ffffffff16565b80519091501561162e578080602001905160208110156115f157600080fd5b505161162e5760405162461bcd60e51b815260040180806020018281038252602a81526020018061250b602a913960400191505060405180910390fd5b505050565b600081848411156116855760405162461bcd60e51b81526020600482018181528351602484015283519092839260449091019190850190808383600083156114ae578181015183820152602001611496565b505050900390565b5490565b600061169d8383611565565b6116d35750815460018181018455600084815260208082209093018490558454848252828601909352604090209190915561079a565b50600061079a565b60008181526001830160205260408120548015611797578354600019808301919081019060009087908390811061170e57fe5b906000526020600020015490508087600001848154811061172b57fe5b60009182526020808320909101929092558281526001898101909252604090209084019055865487908061175b57fe5b6001900381819060005260206000200160009055905586600101600087815260200190815260200160002060009055600194505050505061079a565b600091505061079a565b60606117b084846000856117b8565b949350505050565b6060824710156117f95760405162461bcd60e51b81526004018080602001828103825260268152602001806124946026913960400191505060405180910390fd5b61180285611914565b611853576040805162461bcd60e51b815260206004820152601d60248201527f416464726573733a2063616c6c20746f206e6f6e2d636f6e7472616374000000604482015290519081900360640190fd5b60006060866001600160a01b031685876040518082805190602001908083835b602083106118925780518252601f199092019160209182019101611873565b6001836020036101000a03801982511681845116808217855250505050505090500191505060006040518083038185875af1925050503d80600081146118f4576040519150601f19603f3d011682016040523d82523d6000602084013e6118f9565b606091505b509150915061190982828661191a565b979650505050505050565b3b151590565b606083156119295750816114fa565b8251156119395782518084602001fd5b60405162461bcd60e51b81526020600482018181528451602484015284518593919283926044019190850190808383600083156114ae578181015183820152602001611496565b610ab58061198e8339019056fe608060405234801561001057600080fd5b50604051610ab5380380610ab58339818101604052608081101561003357600080fd5b5080516020820151604083015160609093015160028054336001600160a01b0319918216179091556000805482166001600160a01b0395861617815560018054831694861694909417909355600380549091169390941692909217909255600455610a119081906100a490396000f3fe608060405234801561001057600080fd5b50600436106100885760003560e01c80638da5cb5b1161005b5780638da5cb5b146100fb578063c74073a114610103578063c9d27afe14610129578063fd4300851461014e57610088565b806333194c0a1461008d57806347ccca02146100a75780635c19a95c146100cb5780635f8aaa69146100f3575b600080fd5b610095610156565b60408051918252519081900360200190f35b6100af61015c565b604080516001600160a01b039092168252519081900360200190f35b6100f1600480360360208110156100e157600080fd5b50356001600160a01b031661016b565b005b6100af6102d5565b6100af6102e4565b6100f16004803603602081101561011957600080fd5b50356001600160a01b03166102f3565b6100f16004803603604081101561013f57600080fd5b5080359060200135151561049b565b6100af61060f565b60045481565b6003546001600160a01b031681565b60035460048054604080516331a9108f60e11b815292830191909152516001600160a01b0390921691636352211e91602480820192602092909190829003018186803b1580156101ba57600080fd5b505afa1580156101ce573d6000803e3d6000fd5b505050506040513d60208110156101e457600080fd5b50516001600160a01b0316331461022c5760405162461bcd60e51b81526004018080602001828103825260228152602001806109906022913960400191505060405180910390fd5b60008054604080516317066a5760e21b81526001600160a01b03858116600483015291519190921692635c19a95c926024808201939182900301818387803b15801561027757600080fd5b505af115801561028b573d6000803e3d6000fd5b5050604080513081526001600160a01b038516602082015281517fd000f39f92c3ed77f890f16b6ced1555e0ab2cdf470522d2210de67d8c83d45b9450908190039091019150a150565b6000546001600160a01b031681565b6002546001600160a01b031681565b6002546001600160a01b03163314610352576040805162461bcd60e51b815260206004820152601e60248201527f43616c6c657220646f6573206e6f74206f776e2074686973207661756c740000604482015290519081900360640190fd5b60008054604080516370a0823160e01b815230600482015290516001600160a01b03909216916370a0823191602480820192602092909190829003018186803b15801561039e57600080fd5b505afa1580156103b2573d6000803e3d6000fd5b505050506040513d60208110156103c857600080fd5b50516000549091506103e4906001600160a01b0316838361061e565b600054604080516370a0823160e01b815230600482015290516001600160a01b03909216916370a0823191602480820192602092909190829003018186803b15801561042f57600080fd5b505afa158015610443573d6000803e3d6000fd5b505050506040513d602081101561045957600080fd5b5051156104975760405162461bcd60e51b815260040180806020018281038252602481526020018061096c6024913960400191505060405180910390fd5b5050565b60035460048054604080516331a9108f60e11b815292830191909152516001600160a01b0390921691636352211e91602480820192602092909190829003018186803b1580156104ea57600080fd5b505afa1580156104fe573d6000803e3d6000fd5b505050506040513d602081101561051457600080fd5b50516001600160a01b0316331461055c5760405162461bcd60e51b81526004018080602001828103825260228152602001806109906022913960400191505060405180910390fd5b600154604080516315373e3d60e01b815260048101859052831515602482015290516001600160a01b03909216916315373e3d9160448082019260009290919082900301818387803b1580156105b157600080fd5b505af11580156105c5573d6000803e3d6000fd5b505060408051338152602081018690528415158183015290517f749addf8eadeff63c43be59c27331be5c6d4fc9e82bbfbcf162321c9b35a95b49350908190036060019150a15050565b6001546001600160a01b031681565b604080516001600160a01b038416602482015260448082018490528251808303909101815260649091019091526020810180516001600160e01b031663a9059cbb60e01b179052610670908490610675565b505050565b60606106ca826040518060400160405280602081526020017f5361666545524332303a206c6f772d6c6576656c2063616c6c206661696c6564815250856001600160a01b03166107269092919063ffffffff16565b805190915015610670578080602001905160208110156106e957600080fd5b50516106705760405162461bcd60e51b815260040180806020018281038252602a8152602001806109b2602a913960400191505060405180910390fd5b6060610735848460008561073f565b90505b9392505050565b6060824710156107805760405162461bcd60e51b81526004018080602001828103825260268152602001806109466026913960400191505060405180910390fd5b6107898561089b565b6107da576040805162461bcd60e51b815260206004820152601d60248201527f416464726573733a2063616c6c20746f206e6f6e2d636f6e7472616374000000604482015290519081900360640190fd5b60006060866001600160a01b031685876040518082805190602001908083835b602083106108195780518252601f1990920191602091820191016107fa565b6001836020036101000a03801982511681845116808217855250505050505090500191505060006040518083038185875af1925050503d806000811461087b576040519150601f19603f3d011682016040523d82523d6000602084013e610880565b606091505b50915091506108908282866108a1565b979650505050505050565b3b151590565b606083156108b0575081610738565b8251156108c05782518084602001fd5b8160405162461bcd60e51b81526004018080602001828103825283818151815260200191508051906020019080838360005b8381101561090a5781810151838201526020016108f2565b50505050905090810190601f1680156109375780820380516001836020036101000a031916815260200191505b509250505060405180910390fdfe416464726573733a20696e73756666696369656e742062616c616e636520666f722063616c6c556e6578706563746564206572726f72207472616e7366657272696e6720746f6b656e73596f75277265206e6f7420746865206f776e6572206f662074686973207661756c745361666545524332303a204552433230206f7065726174696f6e20646964206e6f742073756363656564a2646970667358221220842608050bfedf1a80bed6231c8b106155cc8abc1d3d1f5d10b2c38c0ee4e7ed64736f6c63430007040033456e756d657261626c655365743a20696e646578206f7574206f6620626f756e6473416363657373436f6e74726f6c3a2073656e646572206d75737420626520616e2061646d696e20746f206772616e74416464726573733a20696e73756666696369656e742062616c616e636520666f722063616c6c416363657373436f6e74726f6c3a2073656e646572206d75737420626520616e2061646d696e20746f207265766f6b65536166654d6174683a206d756c7469706c69636174696f6e206f766572666c6f775361666545524332303a204552433230206f7065726174696f6e20646964206e6f742073756363656564416363657373436f6e74726f6c3a2063616e206f6e6c792072656e6f756e636520726f6c657320666f722073656c66a26469706673582212208578a2e1f5b7cab60d647d9d5b766974c4a3cbd99de7a41014b201dce4d7259d64736f6c6343000704003360806040523480156200001157600080fd5b50604051620017cb380380620017cb833981810160405260208110156200003757600080fd5b5051604080518082018252600a8152692b30bab63a2a37b5b2b760b11b602082810191825283518085019094526002845261159560f21b908401528151919291620000859160039162000250565b5080516200009b90600490602084019062000250565b50506005805460ff1916601217905550620000c6600080516020620017ab83398151915282620000e8565b620000e1600080516020620017ab83398151915280620000f8565b50620002fc565b620000f482826200014a565b5050565b600082815260066020526040808220600201549051839285917fbd79b86ffe0ab8e8776151514217cd7cacd52c909f66475c3af44e129f0b00ff9190a460009182526006602052604090912060020155565b60008281526006602090815260409091206200017191839062000a4e620001c5821b17901c565b15620000f45762000181620001e5565b6001600160a01b0316816001600160a01b0316837f2f8788117e7eff1d82e926ec794901d17c78024a50270940304540a733656f0d60405160405180910390a45050565b6000620001dc836001600160a01b038416620001e9565b90505b92915050565b3390565b6000620001f7838362000238565b6200022f57508154600181810184556000848152602080822090930184905584548482528286019093526040902091909155620001df565b506000620001df565b60009081526001919091016020526040902054151590565b828054600181600116156101000203166002900490600052602060002090601f016020900481019282620002885760008555620002d3565b82601f10620002a357805160ff1916838001178555620002d3565b82800160010185558215620002d3579182015b82811115620002d3578251825591602001919060010190620002b6565b50620002e1929150620002e5565b5090565b5b80821115620002e15760008155600101620002e6565b61149f806200030c6000396000f3fe608060405234801561001057600080fd5b50600436106101425760003560e01c806375b238fc116100b8578063a217fddf1161007c578063a217fddf1461040e578063a457c2d714610416578063a9059cbb14610442578063ca15c8731461046e578063d547741f1461048b578063dd62ed3e146104b757610142565b806375b238fc146103675780639010d07c1461036f57806391d14854146103ae57806395d89b41146103da5780639dc29fac146103e257610142565b80632f2ff15d1161010a5780632f2ff15d14610271578063313ce5671461029f57806336568abe146102bd57806339509351146102e957806340c10f191461031557806370a082311461034157610142565b806306fdde0314610147578063095ea7b3146101c457806318160ddd1461020457806323b872dd1461021e578063248a9ca314610254575b600080fd5b61014f6104e5565b6040805160208082528351818301528351919283929083019185019080838360005b83811015610189578181015183820152602001610171565b50505050905090810190601f1680156101b65780820380516001836020036101000a031916815260200191505b509250505060405180910390f35b6101f0600480360360408110156101da57600080fd5b506001600160a01b03813516906020013561057b565b604080519115158252519081900360200190f35b61020c610599565b60408051918252519081900360200190f35b6101f06004803603606081101561023457600080fd5b506001600160a01b0381358116916020810135909116906040013561059f565b61020c6004803603602081101561026a57600080fd5b5035610626565b61029d6004803603604081101561028757600080fd5b50803590602001356001600160a01b031661063b565b005b6102a76106a7565b6040805160ff9092168252519081900360200190f35b61029d600480360360408110156102d357600080fd5b50803590602001356001600160a01b03166106b0565b6101f0600480360360408110156102ff57600080fd5b506001600160a01b038135169060200135610711565b61029d6004803603604081101561032b57600080fd5b506001600160a01b03813516906020013561075f565b61020c6004803603602081101561035757600080fd5b50356001600160a01b03166107dd565b61020c6107f8565b6103926004803603604081101561038557600080fd5b508035906020013561081c565b604080516001600160a01b039092168252519081900360200190f35b6101f0600480360360408110156103c457600080fd5b50803590602001356001600160a01b031661083b565b61014f610853565b61029d600480360360408110156103f857600080fd5b506001600160a01b0381351690602001356108b4565b61020c610932565b6101f06004803603604081101561042c57600080fd5b506001600160a01b038135169060200135610937565b6101f06004803603604081101561045857600080fd5b506001600160a01b03813516906020013561099f565b61020c6004803603602081101561048457600080fd5b50356109b3565b61029d600480360360408110156104a157600080fd5b50803590602001356001600160a01b03166109ca565b61020c600480360360408110156104cd57600080fd5b506001600160a01b0381358116916020013516610a23565b60038054604080516020601f60026000196101006001881615020190951694909404938401819004810282018101909252828152606093909290918301828280156105715780601f1061054657610100808354040283529160200191610571565b820191906000526020600020905b81548152906001019060200180831161055457829003601f168201915b5050505050905090565b600061058f610588610a63565b8484610a67565b5060015b92915050565b60025490565b60006105ac848484610b53565b61061c846105b8610a63565b61061785604051806060016040528060288152602001611384602891396001600160a01b038a166000908152600160205260408120906105f6610a63565b6001600160a01b031681526020810191909152604001600020549190610cae565b610a67565b5060019392505050565b60009081526006602052604090206002015490565b60008281526006602052604090206002015461065e90610659610a63565b61083b565b6106995760405162461bcd60e51b815260040180806020018281038252602f8152602001806112bb602f913960400191505060405180910390fd5b6106a38282610d45565b5050565b60055460ff1690565b6106b8610a63565b6001600160a01b0316816001600160a01b0316146107075760405162461bcd60e51b815260040180806020018281038252602f81526020018061143b602f913960400191505060405180910390fd5b6106a38282610dae565b600061058f61071e610a63565b84610617856001600061072f610a63565b6001600160a01b03908116825260208083019390935260409182016000908120918c168152925290205490610e17565b6107897fa49807205ce4d355092ef5a8a18f56e8913cf4a201fbe287825b095693c217753361083b565b6107d3576040805162461bcd60e51b815260206004820152601660248201527521b0b63632b91034b9903737ba1030b71030b236b4b760511b604482015290519081900360640190fd5b6106a38282610e71565b6001600160a01b031660009081526020819052604090205490565b7fa49807205ce4d355092ef5a8a18f56e8913cf4a201fbe287825b095693c2177581565b60008281526006602052604081206108349083610f61565b9392505050565b60008281526006602052604081206108349083610f6d565b60048054604080516020601f60026000196101006001881615020190951694909404938401819004810282018101909252828152606093909290918301828280156105715780601f1061054657610100808354040283529160200191610571565b6108de7fa49807205ce4d355092ef5a8a18f56e8913cf4a201fbe287825b095693c217753361083b565b610928576040805162461bcd60e51b815260206004820152601660248201527521b0b63632b91034b9903737ba1030b71030b236b4b760511b604482015290519081900360640190fd5b6106a38282610f82565b600081565b600061058f610944610a63565b8461061785604051806060016040528060258152602001611416602591396001600061096e610a63565b6001600160a01b03908116825260208083019390935260409182016000908120918d16815292529020549190610cae565b600061058f6109ac610a63565b8484610b53565b60008181526006602052604081206105939061107e565b6000828152600660205260409020600201546109e890610659610a63565b6107075760405162461bcd60e51b81526004018080602001828103825260308152602001806113546030913960400191505060405180910390fd5b6001600160a01b03918216600090815260016020908152604080832093909416825291909152205490565b6000610834836001600160a01b038416611089565b3390565b6001600160a01b038316610aac5760405162461bcd60e51b81526004018080602001828103825260248152602001806113f26024913960400191505060405180910390fd5b6001600160a01b038216610af15760405162461bcd60e51b815260040180806020018281038252602281526020018061130c6022913960400191505060405180910390fd5b6001600160a01b03808416600081815260016020908152604080832094871680845294825291829020859055815185815291517f8c5be1e5ebec7d5bd14f71427d1e84f3dd0314c0f7b2291e5b200ac8c7c3b9259281900390910190a3505050565b6001600160a01b038316610b985760405162461bcd60e51b81526004018080602001828103825260258152602001806113cd6025913960400191505060405180910390fd5b6001600160a01b038216610bdd5760405162461bcd60e51b81526004018080602001828103825260238152602001806112986023913960400191505060405180910390fd5b610be88383836110d3565b610c258160405180606001604052806026815260200161132e602691396001600160a01b0386166000908152602081905260409020549190610cae565b6001600160a01b038085166000908152602081905260408082209390935590841681522054610c549082610e17565b6001600160a01b038084166000818152602081815260409182902094909455805185815290519193928716927fddf252ad1be2c89b69c2b068fc378daa952ba7f163c4a11628f55a4df523b3ef92918290030190a3505050565b60008184841115610d3d5760405162461bcd60e51b81526004018080602001828103825283818151815260200191508051906020019080838360005b83811015610d02578181015183820152602001610cea565b50505050905090810190601f168015610d2f5780820380516001836020036101000a031916815260200191505b509250505060405180910390fd5b505050900390565b6000828152600660205260409020610d5d9082610a4e565b156106a357610d6a610a63565b6001600160a01b0316816001600160a01b0316837f2f8788117e7eff1d82e926ec794901d17c78024a50270940304540a733656f0d60405160405180910390a45050565b6000828152600660205260409020610dc690826110d8565b156106a357610dd3610a63565b6001600160a01b0316816001600160a01b0316837ff6391f5c32d9c69d2a47ea670b442974b53935d1edc7fd64eb21e047a839171b60405160405180910390a45050565b600082820183811015610834576040805162461bcd60e51b815260206004820152601b60248201527f536166654d6174683a206164646974696f6e206f766572666c6f770000000000604482015290519081900360640190fd5b6001600160a01b038216610ecc576040805162461bcd60e51b815260206004820152601f60248201527f45524332303a206d696e7420746f20746865207a65726f206164647265737300604482015290519081900360640190fd5b610ed8600083836110d3565b600254610ee59082610e17565b6002556001600160a01b038216600090815260208190526040902054610f0b9082610e17565b6001600160a01b0383166000818152602081815260408083209490945583518581529351929391927fddf252ad1be2c89b69c2b068fc378daa952ba7f163c4a11628f55a4df523b3ef9281900390910190a35050565b600061083483836110ed565b6000610834836001600160a01b038416611151565b6001600160a01b038216610fc75760405162461bcd60e51b81526004018080602001828103825260218152602001806113ac6021913960400191505060405180910390fd5b610fd3826000836110d3565b611010816040518060600160405280602281526020016112ea602291396001600160a01b0385166000908152602081905260409020549190610cae565b6001600160a01b0383166000908152602081905260409020556002546110369082611169565b6002556040805182815290516000916001600160a01b038516917fddf252ad1be2c89b69c2b068fc378daa952ba7f163c4a11628f55a4df523b3ef9181900360200190a35050565b6000610593826111ab565b60006110958383611151565b6110cb57508154600181810184556000848152602080822090930184905584548482528286019093526040902091909155610593565b506000610593565b505050565b6000610834836001600160a01b0384166111af565b8154600090821061112f5760405162461bcd60e51b81526004018080602001828103825260228152602001806112766022913960400191505060405180910390fd5b82600001828154811061113e57fe5b9060005260206000200154905092915050565b60009081526001919091016020526040902054151590565b600061083483836040518060400160405280601e81526020017f536166654d6174683a207375627472616374696f6e206f766572666c6f770000815250610cae565b5490565b6000818152600183016020526040812054801561126b57835460001980830191908101906000908790839081106111e257fe5b90600052602060002001549050808760000184815481106111ff57fe5b60009182526020808320909101929092558281526001898101909252604090209084019055865487908061122f57fe5b60019003818190600052602060002001600090559055866001016000878152602001908152602001600020600090556001945050505050610593565b600091505061059356fe456e756d657261626c655365743a20696e646578206f7574206f6620626f756e647345524332303a207472616e7366657220746f20746865207a65726f2061646472657373416363657373436f6e74726f6c3a2073656e646572206d75737420626520616e2061646d696e20746f206772616e7445524332303a206275726e20616d6f756e7420657863656564732062616c616e636545524332303a20617070726f766520746f20746865207a65726f206164647265737345524332303a207472616e7366657220616d6f756e7420657863656564732062616c616e6365416363657373436f6e74726f6c3a2073656e646572206d75737420626520616e2061646d696e20746f207265766f6b6545524332303a207472616e7366657220616d6f756e74206578636565647320616c6c6f77616e636545524332303a206275726e2066726f6d20746865207a65726f206164647265737345524332303a207472616e736665722066726f6d20746865207a65726f206164647265737345524332303a20617070726f76652066726f6d20746865207a65726f206164647265737345524332303a2064656372656173656420616c6c6f77616e63652062656c6f77207a65726f416363657373436f6e74726f6c3a2063616e206f6e6c792072656e6f756e636520726f6c657320666f722073656c66a2646970667358221220224c96c248508a7465a699794de7d4a72b9e6c78c3a4ff49f46b5ac5ad72bdae64736f6c63430007040033a49807205ce4d355092ef5a8a18f56e8913cf4a201fbe287825b095693c2177560806040523480156200001157600080fd5b506040516200275f3803806200275f833981810160405260208110156200003757600080fd5b5051604080518082018252600881526715985d5b1d13919560c21b602082810191909152825180840190935260048352631593919560e21b9083015290620000866301ffc9a760e01b62000128565b81516200009b90600690602085019062000315565b508051620000b190600790602084019062000315565b50620000c46380ac58cd60e01b62000128565b620000d6635b5e139f60e01b62000128565b620000e863780e9d6360e01b62000128565b506200010690506000805160206200273f83398151915282620001ad565b620001216000805160206200273f83398151915280620001bd565b50620003c1565b6001600160e01b0319808216141562000188576040805162461bcd60e51b815260206004820152601c60248201527f4552433136353a20696e76616c696420696e7465726661636520696400000000604482015290519081900360640190fd5b6001600160e01b0319166000908152602081905260409020805460ff19166001179055565b620001b982826200020f565b5050565b6000828152600a6020526040808220600201549051839285917fbd79b86ffe0ab8e8776151514217cd7cacd52c909f66475c3af44e129f0b00ff9190a46000918252600a602052604090912060020155565b6000828152600a6020908152604090912062000236918390620011b06200028a821b17901c565b15620001b95762000246620002aa565b6001600160a01b0316816001600160a01b0316837f2f8788117e7eff1d82e926ec794901d17c78024a50270940304540a733656f0d60405160405180910390a45050565b6000620002a1836001600160a01b038416620002ae565b90505b92915050565b3390565b6000620002bc8383620002fd565b620002f457508154600181810184556000848152602080822090930184905584548482528286019093526040902091909155620002a4565b506000620002a4565b60009081526001919091016020526040902054151590565b828054600181600116156101000203166002900490600052602060002090601f0160209004810192826200034d576000855562000398565b82601f106200036857805160ff191683800117855562000398565b8280016001018555821562000398579182015b82811115620003985782518255916020019190600101906200037b565b50620003a6929150620003aa565b5090565b5b80821115620003a65760008155600101620003ab565b61236e80620003d16000396000f3fe608060405234801561001057600080fd5b50600436106101c45760003560e01c80636a627842116100f9578063a217fddf11610097578063c87b56dd11610071578063c87b56dd14610615578063ca15c87314610632578063d547741f1461064f578063e985e9c51461067b576101c4565b8063a217fddf14610519578063a22cb46514610521578063b88d4fde1461054f576101c4565b806375b238fc116100d357806375b238fc146104ba5780639010d07c146104c257806391d14854146104e557806395d89b4114610511576101c4565b80636a627842146104665780636c0360eb1461048c57806370a0823114610494576101c4565b80632f2ff15d1161016657806342842e0e1161014057806342842e0e146103d957806342966c681461040f5780634f6ccce71461042c5780636352211e14610449576101c4565b80632f2ff15d146103555780632f745c591461038157806336568abe146103ad576101c4565b8063095ea7b3116101a2578063095ea7b3146102ba57806318160ddd146102e857806323b872dd14610302578063248a9ca314610338576101c4565b806301ffc9a7146101c957806306fdde0314610204578063081812fc14610281575b600080fd5b6101f0600480360360208110156101df57600080fd5b50356001600160e01b0319166106a9565b604080519115158252519081900360200190f35b61020c6106cc565b6040805160208082528351818301528351919283929083019185019080838360005b8381101561024657818101518382015260200161022e565b50505050905090810190601f1680156102735780820380516001836020036101000a031916815260200191505b509250505060405180910390f35b61029e6004803603602081101561029757600080fd5b5035610762565b604080516001600160a01b039092168252519081900360200190f35b6102e6600480360360408110156102d057600080fd5b506001600160a01b0381351690602001356107c4565b005b6102f061089f565b60408051918252519081900360200190f35b6102e66004803603606081101561031857600080fd5b506001600160a01b038135811691602081013590911690604001356108b0565b6102f06004803603602081101561034e57600080fd5b5035610907565b6102e66004803603604081101561036b57600080fd5b50803590602001356001600160a01b031661091c565b6102f06004803603604081101561039757600080fd5b506001600160a01b038135169060200135610988565b6102e6600480360360408110156103c357600080fd5b50803590602001356001600160a01b03166109b3565b6102e6600480360360608110156103ef57600080fd5b506001600160a01b03813581169160208101359091169060400135610a14565b6102e66004803603602081101561042557600080fd5b5035610a2f565b6102f06004803603602081101561044257600080fd5b5035610aaf565b61029e6004803603602081101561045f57600080fd5b5035610ac5565b6102f06004803603602081101561047c57600080fd5b50356001600160a01b0316610aed565b61020c610b85565b6102f0600480360360208110156104aa57600080fd5b50356001600160a01b0316610be6565b6102f0610c4e565b61029e600480360360408110156104d857600080fd5b5080359060200135610c72565b6101f0600480360360408110156104fb57600080fd5b50803590602001356001600160a01b0316610c8a565b61020c610ca2565b6102f0610d03565b6102e66004803603604081101561053757600080fd5b506001600160a01b0381351690602001351515610d08565b6102e66004803603608081101561056557600080fd5b6001600160a01b038235811692602081013590911691604082013591908101906080810160608201356401000000008111156105a057600080fd5b8201836020820111156105b257600080fd5b803590602001918460018302840111640100000000831117156105d457600080fd5b91908080601f016020809104026020016040519081016040528093929190818152602001838380828437600092019190915250929550610e0d945050505050565b61020c6004803603602081101561062b57600080fd5b5035610e6b565b6102f06004803603602081101561064857600080fd5b5035611112565b6102e66004803603604081101561066557600080fd5b50803590602001356001600160a01b0316611129565b6101f06004803603604081101561069157600080fd5b506001600160a01b0381358116916020013516611182565b6001600160e01b0319811660009081526020819052604090205460ff165b919050565b60068054604080516020601f60026000196101006001881615020190951694909404938401819004810282018101909252828152606093909290918301828280156107585780601f1061072d57610100808354040283529160200191610758565b820191906000526020600020905b81548152906001019060200180831161073b57829003601f168201915b5050505050905090565b600061076d826111c5565b6107a85760405162461bcd60e51b815260040180806020018281038252602c815260200180612234602c913960400191505060405180910390fd5b506000908152600460205260409020546001600160a01b031690565b60006107cf82610ac5565b9050806001600160a01b0316836001600160a01b031614156108225760405162461bcd60e51b81526004018080602001828103825260218152602001806122b86021913960400191505060405180910390fd5b806001600160a01b03166108346111d2565b6001600160a01b031614806108555750610855816108506111d2565b611182565b6108905760405162461bcd60e51b81526004018080602001828103825260388152602001806121876038913960400191505060405180910390fd5b61089a83836111d6565b505050565b60006108ab6002611244565b905090565b6108c16108bb6111d2565b8261124f565b6108fc5760405162461bcd60e51b81526004018080602001828103825260318152602001806122d96031913960400191505060405180910390fd5b61089a8383836112f3565b6000908152600a602052604090206002015490565b6000828152600a602052604090206002015461093f9061093a6111d2565b610c8a565b61097a5760405162461bcd60e51b815260040180806020018281038252602f8152602001806120a6602f913960400191505060405180910390fd5b610984828261143f565b5050565b6001600160a01b03821660009081526001602052604081206109aa90836114a8565b90505b92915050565b6109bb6111d2565b6001600160a01b0316816001600160a01b031614610a0a5760405162461bcd60e51b815260040180806020018281038252602f81526020018061230a602f913960400191505060405180910390fd5b61098482826114b4565b61089a83838360405180602001604052806000815250610e0d565b610a597fa49807205ce4d355092ef5a8a18f56e8913cf4a201fbe287825b095693c2177533610c8a565b610aa3576040805162461bcd60e51b815260206004820152601660248201527521b0b63632b91034b9903737ba1030b71030b236b4b760511b604482015290519081900360640190fd5b610aac8161151d565b50565b600080610abd6002846115ea565b509392505050565b60006109ad826040518060600160405280602981526020016121e96029913960029190611606565b6000610b197fa49807205ce4d355092ef5a8a18f56e8913cf4a201fbe287825b095693c2177533610c8a565b610b63576040805162461bcd60e51b815260206004820152601660248201527521b0b63632b91034b9903737ba1030b71030b236b4b760511b604482015290519081900360640190fd5b610b6d600b61161d565b6000610b79600b611626565b90506109ad838261162a565b60098054604080516020601f60026000196101006001881615020190951694909404938401819004810282018101909252828152606093909290918301828280156107585780601f1061072d57610100808354040283529160200191610758565b60006001600160a01b038216610c2d5760405162461bcd60e51b815260040180806020018281038252602a8152602001806121bf602a913960400191505060405180910390fd5b6001600160a01b03821660009081526001602052604090206109ad90611244565b7fa49807205ce4d355092ef5a8a18f56e8913cf4a201fbe287825b095693c2177581565b6000828152600a602052604081206109aa90836114a8565b6000828152600a602052604081206109aa9083611758565b60078054604080516020601f60026000196101006001881615020190951694909404938401819004810282018101909252828152606093909290918301828280156107585780601f1061072d57610100808354040283529160200191610758565b600081565b610d106111d2565b6001600160a01b0316826001600160a01b03161415610d76576040805162461bcd60e51b815260206004820152601960248201527f4552433732313a20617070726f766520746f2063616c6c657200000000000000604482015290519081900360640190fd5b8060056000610d836111d2565b6001600160a01b03908116825260208083019390935260409182016000908120918716808252919093529120805460ff191692151592909217909155610dc76111d2565b6001600160a01b03167f17307eab39ab6107e8899845ad3d59bd9653f200f220920489ca2b5937696c318360405180821515815260200191505060405180910390a35050565b610e1e610e186111d2565b8361124f565b610e595760405162461bcd60e51b81526004018080602001828103825260318152602001806122d96031913960400191505060405180910390fd5b610e658484848461176d565b50505050565b6060610e76826111c5565b610eb15760405162461bcd60e51b815260040180806020018281038252602f815260200180612289602f913960400191505060405180910390fd5b60008281526008602090815260409182902080548351601f6002600019610100600186161502019093169290920491820184900484028101840190945280845260609392830182828015610f465780601f10610f1b57610100808354040283529160200191610f46565b820191906000526020600020905b815481529060010190602001808311610f2957829003601f168201915b505060095493945050505060026000196101006001841615020190911604610f6f5790506106c7565b805115611040576009816040516020018083805460018160011615610100020316600290048015610fd75780601f10610fb5576101008083540402835291820191610fd7565b820191906000526020600020905b815481529060010190602001808311610fc3575b5050825160208401908083835b602083106110035780518252601f199092019160209182019101610fe4565b6001836020036101000a038019825116818451168082178552505050505050905001925050506040516020818303038152906040529150506106c7565b600961104b846117bf565b60405160200180838054600181600116156101000203166002900480156110a95780601f106110875761010080835404028352918201916110a9565b820191906000526020600020905b815481529060010190602001808311611095575b5050825160208401908083835b602083106110d55780518252601f1990920191602091820191016110b6565b6001836020036101000a03801982511681845116808217855250505050505090500192505050604051602081830303815290604052915050919050565b6000818152600a602052604081206109ad90611244565b6000828152600a60205260409020600201546111479061093a6111d2565b610a0a5760405162461bcd60e51b81526004018080602001828103825260308152602001806121576030913960400191505060405180910390fd5b6001600160a01b03918216600090815260056020908152604080832093909416825291909152205460ff1690565b60006109aa836001600160a01b03841661189a565b60006109ad6002836118e4565b3390565b600081815260046020526040902080546001600160a01b0319166001600160a01b038416908117909155819061120b82610ac5565b6001600160a01b03167f8c5be1e5ebec7d5bd14f71427d1e84f3dd0314c0f7b2291e5b200ac8c7c3b92560405160405180910390a45050565b60006109ad82611626565b600061125a826111c5565b6112955760405162461bcd60e51b815260040180806020018281038252602c81526020018061212b602c913960400191505060405180910390fd5b60006112a083610ac5565b9050806001600160a01b0316846001600160a01b031614806112db5750836001600160a01b03166112d084610762565b6001600160a01b0316145b806112eb57506112eb8185611182565b949350505050565b826001600160a01b031661130682610ac5565b6001600160a01b03161461134b5760405162461bcd60e51b81526004018080602001828103825260298152602001806122606029913960400191505060405180910390fd5b6001600160a01b0382166113905760405162461bcd60e51b81526004018080602001828103825260248152602001806121076024913960400191505060405180910390fd5b61139b83838361089a565b6113a66000826111d6565b6001600160a01b03831660009081526001602052604090206113c890826118f0565b506001600160a01b03821660009081526001602052604090206113eb90826118fc565b506113f860028284611908565b5080826001600160a01b0316846001600160a01b03167fddf252ad1be2c89b69c2b068fc378daa952ba7f163c4a11628f55a4df523b3ef60405160405180910390a4505050565b6000828152600a6020526040902061145790826111b0565b15610984576114646111d2565b6001600160a01b0316816001600160a01b0316837f2f8788117e7eff1d82e926ec794901d17c78024a50270940304540a733656f0d60405160405180910390a45050565b60006109aa838361191e565b6000828152600a602052604090206114cc9082611982565b15610984576114d96111d2565b6001600160a01b0316816001600160a01b0316837ff6391f5c32d9c69d2a47ea670b442974b53935d1edc7fd64eb21e047a839171b60405160405180910390a45050565b600061152882610ac5565b90506115368160008461089a565b6115416000836111d6565b600082815260086020526040902054600260001961010060018416150201909116041561157f57600082815260086020526040812061157f9161202b565b6001600160a01b03811660009081526001602052604090206115a190836118f0565b506115ad600283611997565b5060405182906000906001600160a01b038416907fddf252ad1be2c89b69c2b068fc378daa952ba7f163c4a11628f55a4df523b3ef908390a45050565b60008080806115f986866119a3565b9097909650945050505050565b6000611613848484611a1e565b90505b9392505050565b80546001019055565b5490565b6001600160a01b038216611685576040805162461bcd60e51b815260206004820181905260248201527f4552433732313a206d696e7420746f20746865207a65726f2061646472657373604482015290519081900360640190fd5b61168e816111c5565b156116e0576040805162461bcd60e51b815260206004820152601c60248201527f4552433732313a20746f6b656e20616c7265616479206d696e74656400000000604482015290519081900360640190fd5b6116ec6000838361089a565b6001600160a01b038216600090815260016020526040902061170e90826118fc565b5061171b60028284611908565b5060405181906001600160a01b038416906000907fddf252ad1be2c89b69c2b068fc378daa952ba7f163c4a11628f55a4df523b3ef908290a45050565b60006109aa836001600160a01b038416611ae8565b6117788484846112f3565b61178484848484611b00565b610e655760405162461bcd60e51b81526004018080602001828103825260328152602001806120d56032913960400191505060405180910390fd5b6060816117e457506040805180820190915260018152600360fc1b60208201526106c7565b8160005b81156117fc57600101600a820491506117e8565b60608167ffffffffffffffff8111801561181557600080fd5b506040519080825280601f01601f191660200182016040528015611840576020820181803683370190505b50859350905060001982015b831561189157600a840660300160f81b8282806001900393508151811061186f57fe5b60200101906001600160f81b031916908160001a905350600a8404935061184c565b50949350505050565b60006118a68383611ae8565b6118dc575081546001818101845560008481526020808220909301849055845484825282860190935260409020919091556109ad565b5060006109ad565b60006109aa8383611ae8565b60006109aa8383611c68565b60006109aa838361189a565b600061161384846001600160a01b038516611d2e565b815460009082106119605760405162461bcd60e51b81526004018080602001828103825260228152602001806120846022913960400191505060405180910390fd5b82600001828154811061196f57fe5b9060005260206000200154905092915050565b60006109aa836001600160a01b038416611c68565b60006109aa8383611dc5565b8154600090819083106119e75760405162461bcd60e51b81526004018080602001828103825260228152602001806122126022913960400191505060405180910390fd5b60008460000184815481106119f857fe5b906000526020600020906002020190508060000154816001015492509250509250929050565b60008281526001840160205260408120548281611ab95760405162461bcd60e51b81526004018080602001828103825283818151815260200191508051906020019080838360005b83811015611a7e578181015183820152602001611a66565b50505050905090810190601f168015611aab5780820380516001836020036101000a031916815260200191505b509250505060405180910390fd5b50846000016001820381548110611acc57fe5b9060005260206000209060020201600101549150509392505050565b60009081526001919091016020526040902054151590565b6000611b14846001600160a01b0316611e99565b611b20575060016112eb565b6060611c2e630a85bd0160e11b611b356111d2565b88878760405160240180856001600160a01b03168152602001846001600160a01b0316815260200183815260200180602001828103825283818151815260200191508051906020019080838360005b83811015611b9c578181015183820152602001611b84565b50505050905090810190601f168015611bc95780820380516001836020036101000a031916815260200191505b5095505050505050604051602081830303815290604052906001600160e01b0319166020820180516001600160e01b0383818316178352505050506040518060600160405280603281526020016120d5603291396001600160a01b0388169190611e9f565b90506000818060200190516020811015611c4757600080fd5b50516001600160e01b031916630a85bd0160e11b1492505050949350505050565b60008181526001830160205260408120548015611d245783546000198083019190810190600090879083908110611c9b57fe5b9060005260206000200154905080876000018481548110611cb857fe5b600091825260208083209091019290925582815260018981019092526040902090840190558654879080611ce857fe5b600190038181906000526020600020016000905590558660010160008781526020019081526020016000206000905560019450505050506109ad565b60009150506109ad565b600082815260018401602052604081205480611d93575050604080518082018252838152602080820184815286546001818101895560008981528481209551600290930290950191825591519082015586548684528188019092529290912055611616565b82856000016001830381548110611da657fe5b9060005260206000209060020201600101819055506000915050611616565b60008181526001830160205260408120548015611d245783546000198083019190810190600090879083908110611df857fe5b9060005260206000209060020201905080876000018481548110611e1857fe5b600091825260208083208454600290930201918255600193840154918401919091558354825289830190526040902090840190558654879080611e5757fe5b60008281526020808220600260001990940193840201828155600190810183905592909355888152898201909252604082209190915594506109ad9350505050565b3b151590565b6060611613848460008585611eb385611e99565b611f04576040805162461bcd60e51b815260206004820152601d60248201527f416464726573733a2063616c6c20746f206e6f6e2d636f6e7472616374000000604482015290519081900360640190fd5b60006060866001600160a01b031685876040518082805190602001908083835b60208310611f435780518252601f199092019160209182019101611f24565b6001836020036101000a03801982511681845116808217855250505050505090500191505060006040518083038185875af1925050503d8060008114611fa5576040519150601f19603f3d011682016040523d82523d6000602084013e611faa565b606091505b5091509150611fba828286611fc5565b979650505050505050565b60608315611fd4575081611616565b825115611fe45782518084602001fd5b60405162461bcd60e51b8152602060048201818152845160248401528451859391928392604401919085019080838360008315611a7e578181015183820152602001611a66565b50805460018160011615610100020316600290046000825580601f106120515750610aac565b601f016020900490600052602060002090810190610aac91905b8082111561207f576000815560010161206b565b509056fe456e756d657261626c655365743a20696e646578206f7574206f6620626f756e6473416363657373436f6e74726f6c3a2073656e646572206d75737420626520616e2061646d696e20746f206772616e744552433732313a207472616e7366657220746f206e6f6e20455243373231526563656976657220696d706c656d656e7465724552433732313a207472616e7366657220746f20746865207a65726f20616464726573734552433732313a206f70657261746f7220717565727920666f72206e6f6e6578697374656e7420746f6b656e416363657373436f6e74726f6c3a2073656e646572206d75737420626520616e2061646d696e20746f207265766f6b654552433732313a20617070726f76652063616c6c6572206973206e6f74206f776e6572206e6f7220617070726f76656420666f7220616c6c4552433732313a2062616c616e636520717565727920666f7220746865207a65726f20616464726573734552433732313a206f776e657220717565727920666f72206e6f6e6578697374656e7420746f6b656e456e756d657261626c654d61703a20696e646578206f7574206f6620626f756e64734552433732313a20617070726f76656420717565727920666f72206e6f6e6578697374656e7420746f6b656e4552433732313a207472616e73666572206f6620746f6b656e2074686174206973206e6f74206f776e4552433732314d657461646174613a2055524920717565727920666f72206e6f6e6578697374656e7420746f6b656e4552433732313a20617070726f76616c20746f2063757272656e74206f776e65724552433732313a207472616e736665722063616c6c6572206973206e6f74206f776e6572206e6f7220617070726f766564416363657373436f6e74726f6c3a2063616e206f6e6c792072656e6f756e636520726f6c657320666f722073656c66a2646970667358221220e21dac8c5498e89096c488051ad78fbbd330d69ae02b8780385c09439ac4cc6664736f6c63430007040033a49807205ce4d355092ef5a8a18f56e8913cf4a201fbe287825b095693c21775",
  "linkReferences": {},
  "deployedLinkReferences": {}
}