{
  "_format": "hh-sol-artifact-1",
  "contractName": "Vault",
  "sourceName": "contracts/Vault.sol",
  "abi": [
    {
      "inputs": [
        {
          "internalType": "contract ICompoundERC20",
          "name": "_sourceToken",
          "type": "address"
        },
        {
          "internalType": "contract ICompoundGovernorAlpha",
          "name": "_governorAlpha",
          "type": "address"
        },
        {
          "internalType": "address",
          "name": "_nft",
          "type": "address"
        },
        {
          "internalType": "uint256",
          "name": "_vaultId",
          "type": "uint256"
        }
      ],
      "stateMutability": "nonpayable",
      "type": "constructor"
    },
    {
      "anonymous": false,
      "inputs": [
        {
          "indexed": false,
          "internalType": "address",
          "name": "delegator",
          "type": "address"
        },
        {
          "indexed": false,
          "internalType": "address",
          "name": "delegatee",
          "type": "address"
        }
      ],
      "name": "Delegation",
      "type": "event"
    },
    {
      "anonymous": false,
      "inputs": [
        {
          "indexed": false,
          "internalType": "address",
          "name": "voter",
          "type": "address"
        },
        {
          "indexed": false,
          "internalType": "uint256",
          "name": "proposalId",
          "type": "uint256"
        },
        {
          "indexed": false,
          "internalType": "bool",
          "name": "support",
          "type": "bool"
        }
      ],
      "name": "Voted",
      "type": "event"
    },
    {
      "inputs": [
        {
          "internalType": "address",
          "name": "recipient",
          "type": "address"
        }
      ],
      "name": "close",
      "outputs": [],
      "stateMutability": "nonpayable",
      "type": "function"
    },
    {
      "inputs": [
        {
          "internalType": "address",
          "name": "delegatee",
          "type": "address"
        }
      ],
      "name": "delegate",
      "outputs": [],
      "stateMutability": "nonpayable",
      "type": "function"
    },
    {
      "inputs": [],
      "name": "governorAlpha",
      "outputs": [
        {
          "internalType": "contract ICompoundGovernorAlpha",
          "name": "",
          "type": "address"
        }
      ],
      "stateMutability": "view",
      "type": "function"
    },
    {
      "inputs": [],
      "name": "nft",
      "outputs": [
        {
          "internalType": "contract IVaultNFT",
          "name": "",
          "type": "address"
        }
      ],
      "stateMutability": "view",
      "type": "function"
    },
    {
      "inputs": [],
      "name": "owner",
      "outputs": [
        {
          "internalType": "address",
          "name": "",
          "type": "address"
        }
      ],
      "stateMutability": "view",
      "type": "function"
    },
    {
      "inputs": [],
      "name": "sourceToken",
      "outputs": [
        {
          "internalType": "contract ICompoundERC20",
          "name": "",
          "type": "address"
        }
      ],
      "stateMutability": "view",
      "type": "function"
    },
    {
      "inputs": [],
      "name": "vaultId",
      "outputs": [
        {
          "internalType": "uint256",
          "name": "",
          "type": "uint256"
        }
      ],
      "stateMutability": "view",
      "type": "function"
    },
    {
      "inputs": [
        {
          "internalType": "uint256",
          "name": "proposalId",
          "type": "uint256"
        },
        {
          "internalType": "bool",
          "name": "support",
          "type": "bool"
        }
      ],
      "name": "vote",
      "outputs": [],
      "stateMutability": "nonpayable",
      "type": "function"
    }
  ],
  "bytecode": "0x608060405234801561001057600080fd5b50604051610ab5380380610ab58339818101604052608081101561003357600080fd5b5080516020820151604083015160609093015160028054336001600160a01b0319918216179091556000805482166001600160a01b0395861617815560018054831694861694909417909355600380549091169390941692909217909255600455610a119081906100a490396000f3fe608060405234801561001057600080fd5b50600436106100885760003560e01c80638da5cb5b1161005b5780638da5cb5b146100fb578063c74073a114610103578063c9d27afe14610129578063fd4300851461014e57610088565b806333194c0a1461008d57806347ccca02146100a75780635c19a95c146100cb5780635f8aaa69146100f3575b600080fd5b610095610156565b60408051918252519081900360200190f35b6100af61015c565b604080516001600160a01b039092168252519081900360200190f35b6100f1600480360360208110156100e157600080fd5b50356001600160a01b031661016b565b005b6100af6102d5565b6100af6102e4565b6100f16004803603602081101561011957600080fd5b50356001600160a01b03166102f3565b6100f16004803603604081101561013f57600080fd5b5080359060200135151561049b565b6100af61060f565b60045481565b6003546001600160a01b031681565b60035460048054604080516331a9108f60e11b815292830191909152516001600160a01b0390921691636352211e91602480820192602092909190829003018186803b1580156101ba57600080fd5b505afa1580156101ce573d6000803e3d6000fd5b505050506040513d60208110156101e457600080fd5b50516001600160a01b0316331461022c5760405162461bcd60e51b81526004018080602001828103825260228152602001806109906022913960400191505060405180910390fd5b60008054604080516317066a5760e21b81526001600160a01b03858116600483015291519190921692635c19a95c926024808201939182900301818387803b15801561027757600080fd5b505af115801561028b573d6000803e3d6000fd5b5050604080513081526001600160a01b038516602082015281517fd000f39f92c3ed77f890f16b6ced1555e0ab2cdf470522d2210de67d8c83d45b9450908190039091019150a150565b6000546001600160a01b031681565b6002546001600160a01b031681565b6002546001600160a01b03163314610352576040805162461bcd60e51b815260206004820152601e60248201527f43616c6c657220646f6573206e6f74206f776e2074686973207661756c740000604482015290519081900360640190fd5b60008054604080516370a0823160e01b815230600482015290516001600160a01b03909216916370a0823191602480820192602092909190829003018186803b15801561039e57600080fd5b505afa1580156103b2573d6000803e3d6000fd5b505050506040513d60208110156103c857600080fd5b50516000549091506103e4906001600160a01b0316838361061e565b600054604080516370a0823160e01b815230600482015290516001600160a01b03909216916370a0823191602480820192602092909190829003018186803b15801561042f57600080fd5b505afa158015610443573d6000803e3d6000fd5b505050506040513d602081101561045957600080fd5b5051156104975760405162461bcd60e51b815260040180806020018281038252602481526020018061096c6024913960400191505060405180910390fd5b5050565b60035460048054604080516331a9108f60e11b815292830191909152516001600160a01b0390921691636352211e91602480820192602092909190829003018186803b1580156104ea57600080fd5b505afa1580156104fe573d6000803e3d6000fd5b505050506040513d602081101561051457600080fd5b50516001600160a01b0316331461055c5760405162461bcd60e51b81526004018080602001828103825260228152602001806109906022913960400191505060405180910390fd5b600154604080516315373e3d60e01b815260048101859052831515602482015290516001600160a01b03909216916315373e3d9160448082019260009290919082900301818387803b1580156105b157600080fd5b505af11580156105c5573d6000803e3d6000fd5b505060408051338152602081018690528415158183015290517f749addf8eadeff63c43be59c27331be5c6d4fc9e82bbfbcf162321c9b35a95b49350908190036060019150a15050565b6001546001600160a01b031681565b604080516001600160a01b038416602482015260448082018490528251808303909101815260649091019091526020810180516001600160e01b031663a9059cbb60e01b179052610670908490610675565b505050565b60606106ca826040518060400160405280602081526020017f5361666545524332303a206c6f772d6c6576656c2063616c6c206661696c6564815250856001600160a01b03166107269092919063ffffffff16565b805190915015610670578080602001905160208110156106e957600080fd5b50516106705760405162461bcd60e51b815260040180806020018281038252602a8152602001806109b2602a913960400191505060405180910390fd5b6060610735848460008561073f565b90505b9392505050565b6060824710156107805760405162461bcd60e51b81526004018080602001828103825260268152602001806109466026913960400191505060405180910390fd5b6107898561089b565b6107da576040805162461bcd60e51b815260206004820152601d60248201527f416464726573733a2063616c6c20746f206e6f6e2d636f6e7472616374000000604482015290519081900360640190fd5b60006060866001600160a01b031685876040518082805190602001908083835b602083106108195780518252601f1990920191602091820191016107fa565b6001836020036101000a03801982511681845116808217855250505050505090500191505060006040518083038185875af1925050503d806000811461087b576040519150601f19603f3d011682016040523d82523d6000602084013e610880565b606091505b50915091506108908282866108a1565b979650505050505050565b3b151590565b606083156108b0575081610738565b8251156108c05782518084602001fd5b8160405162461bcd60e51b81526004018080602001828103825283818151815260200191508051906020019080838360005b8381101561090a5781810151838201526020016108f2565b50505050905090810190601f1680156109375780820380516001836020036101000a031916815260200191505b509250505060405180910390fdfe416464726573733a20696e73756666696369656e742062616c616e636520666f722063616c6c556e6578706563746564206572726f72207472616e7366657272696e6720746f6b656e73596f75277265206e6f7420746865206f776e6572206f662074686973207661756c745361666545524332303a204552433230206f7065726174696f6e20646964206e6f742073756363656564a2646970667358221220842608050bfedf1a80bed6231c8b106155cc8abc1d3d1f5d10b2c38c0ee4e7ed64736f6c63430007040033",
  "linkReferences": {},
  "deployedLinkReferences": {}
}