{
  "_format": "hh-sol-artifact-1",
  "contractName": "VaultToken",
  "sourceName": "contracts/VaultToken.sol",
  "abi": [
    {
      "inputs": [
        {
          "internalType": "address",
          "name": "admin",
          "type": "address"
        }
      ],
      "stateMutability": "nonpayable",
      "type": "constructor"
    },
    {
      "anonymous": false,
      "inputs": [
        {
          "indexed": true,
          "internalType": "address",
          "name": "owner",
          "type": "address"
        },
        {
          "indexed": true,
          "internalType": "address",
          "name": "spender",
          "type": "address"
        },
        {
          "indexed": false,
          "internalType": "uint256",
          "name": "value",
          "type": "uint256"
        }
      ],
      "name": "Approval",
      "type": "event"
    },
    {
      "anonymous": false,
      "inputs": [
        {
          "indexed": true,
          "internalType": "bytes32",
          "name": "role",
          "type": "bytes32"
        },
        {
          "indexed": true,
          "internalType": "bytes32",
          "name": "previousAdminRole",
          "type": "bytes32"
        },
        {
          "indexed": true,
          "internalType": "bytes32",
          "name": "newAdminRole",
          "type": "bytes32"
        }
      ],
      "name": "RoleAdminChanged",
      "type": "event"
    },
    {
      "anonymous": false,
      "inputs": [
        {
          "indexed": true,
          "internalType": "bytes32",
          "name": "role",
          "type": "bytes32"
        },
        {
          "indexed": true,
          "internalType": "address",
          "name": "account",
          "type": "address"
        },
        {
          "indexed": true,
          "internalType": "address",
          "name": "sender",
          "type": "address"
        }
      ],
      "name": "RoleGranted",
      "type": "event"
    },
    {
      "anonymous": false,
      "inputs": [
        {
          "indexed": true,
          "internalType": "bytes32",
          "name": "role",
          "type": "bytes32"
        },
        {
          "indexed": true,
          "internalType": "address",
          "name": "account",
          "type": "address"
        },
        {
          "indexed": true,
          "internalType": "address",
          "name": "sender",
          "type": "address"
        }
      ],
      "name": "RoleRevoked",
      "type": "event"
    },
    {
      "anonymous": false,
      "inputs": [
        {
          "indexed": true,
          "internalType": "address",
          "name": "from",
          "type": "address"
        },
        {
          "indexed": true,
          "internalType": "address",
          "name": "to",
          "type": "address"
        },
        {
          "indexed": false,
          "internalType": "uint256",
          "name": "value",
          "type": "uint256"
        }
      ],
      "name": "Transfer",
      "type": "event"
    },
    {
      "inputs": [],
      "name": "ADMIN_ROLE",
      "outputs": [
        {
          "internalType": "bytes32",
          "name": "",
          "type": "bytes32"
        }
      ],
      "stateMutability": "view",
      "type": "function"
    },
    {
      "inputs": [],
      "name": "DEFAULT_ADMIN_ROLE",
      "outputs": [
        {
          "internalType": "bytes32",
          "name": "",
          "type": "bytes32"
        }
      ],
      "stateMutability": "view",
      "type": "function"
    },
    {
      "inputs": [
        {
          "internalType": "address",
          "name": "owner",
          "type": "address"
        },
        {
          "internalType": "address",
          "name": "spender",
          "type": "address"
        }
      ],
      "name": "allowance",
      "outputs": [
        {
          "internalType": "uint256",
          "name": "",
          "type": "uint256"
        }
      ],
      "stateMutability": "view",
      "type": "function"
    },
    {
      "inputs": [
        {
          "internalType": "address",
          "name": "spender",
          "type": "address"
        },
        {
          "internalType": "uint256",
          "name": "amount",
          "type": "uint256"
        }
      ],
      "name": "approve",
      "outputs": [
        {
          "internalType": "bool",
          "name": "",
          "type": "bool"
        }
      ],
      "stateMutability": "nonpayable",
      "type": "function"
    },
    {
      "inputs": [
        {
          "internalType": "address",
          "name": "account",
          "type": "address"
        }
      ],
      "name": "balanceOf",
      "outputs": [
        {
          "internalType": "uint256",
          "name": "",
          "type": "uint256"
        }
      ],
      "stateMutability": "view",
      "type": "function"
    },
    {
      "inputs": [
        {
          "internalType": "address",
          "name": "account",
          "type": "address"
        },
        {
          "internalType": "uint256",
          "name": "amount",
          "type": "uint256"
        }
      ],
      "name": "burn",
      "outputs": [],
      "stateMutability": "nonpayable",
      "type": "function"
    },
    {
      "inputs": [],
      "name": "decimals",
      "outputs": [
        {
          "internalType": "uint8",
          "name": "",
          "type": "uint8"
        }
      ],
      "stateMutability": "view",
      "type": "function"
    },
    {
      "inputs": [
        {
          "internalType": "address",
          "name": "spender",
          "type": "address"
        },
        {
          "internalType": "uint256",
          "name": "subtractedValue",
          "type": "uint256"
        }
      ],
      "name": "decreaseAllowance",
      "outputs": [
        {
          "internalType": "bool",
          "name": "",
          "type": "bool"
        }
      ],
      "stateMutability": "nonpayable",
      "type": "function"
    },
    {
      "inputs": [
        {
          "internalType": "bytes32",
          "name": "role",
          "type": "bytes32"
        }
      ],
      "name": "getRoleAdmin",
      "outputs": [
        {
          "internalType": "bytes32",
          "name": "",
          "type": "bytes32"
        }
      ],
      "stateMutability": "view",
      "type": "function"
    },
    {
      "inputs": [
        {
          "internalType": "bytes32",
          "name": "role",
          "type": "bytes32"
        },
        {
          "internalType": "uint256",
          "name": "index",
          "type": "uint256"
        }
      ],
      "name": "getRoleMember",
      "outputs": [
        {
          "internalType": "address",
          "name": "",
          "type": "address"
        }
      ],
      "stateMutability": "view",
      "type": "function"
    },
    {
      "inputs": [
        {
          "internalType": "bytes32",
          "name": "role",
          "type": "bytes32"
        }
      ],
      "name": "getRoleMemberCount",
      "outputs": [
        {
          "internalType": "uint256",
          "name": "",
          "type": "uint256"
        }
      ],
      "stateMutability": "view",
      "type": "function"
    },
    {
      "inputs": [
        {
          "internalType": "bytes32",
          "name": "role",
          "type": "bytes32"
        },
        {
          "internalType": "address",
          "name": "account",
          "type": "address"
        }
      ],
      "name": "grantRole",
      "outputs": [],
      "stateMutability": "nonpayable",
      "type": "function"
    },
    {
      "inputs": [
        {
          "internalType": "bytes32",
          "name": "role",
          "type": "bytes32"
        },
        {
          "internalType": "address",
          "name": "account",
          "type": "address"
        }
      ],
      "name": "hasRole",
      "outputs": [
        {
          "internalType": "bool",
          "name": "",
          "type": "bool"
        }
      ],
      "stateMutability": "view",
      "type": "function"
    },
    {
      "inputs": [
        {
          "internalType": "address",
          "name": "spender",
          "type": "address"
        },
        {
          "internalType": "uint256",
          "name": "addedValue",
          "type": "uint256"
        }
      ],
      "name": "increaseAllowance",
      "outputs": [
        {
          "internalType": "bool",
          "name": "",
          "type": "bool"
        }
      ],
      "stateMutability": "nonpayable",
      "type": "function"
    },
    {
      "inputs": [
        {
          "internalType": "address",
          "name": "account",
          "type": "address"
        },
        {
          "internalType": "uint256",
          "name": "amount",
          "type": "uint256"
        }
      ],
      "name": "mint",
      "outputs": [],
      "stateMutability": "nonpayable",
      "type": "function"
    },
    {
      "inputs": [],
      "name": "name",
      "outputs": [
        {
          "internalType": "string",
          "name": "",
          "type": "string"
        }
      ],
      "stateMutability": "view",
      "type": "function"
    },
    {
      "inputs": [
        {
          "internalType": "bytes32",
          "name": "role",
          "type": "bytes32"
        },
        {
          "internalType": "address",
          "name": "account",
          "type": "address"
        }
      ],
      "name": "renounceRole",
      "outputs": [],
      "stateMutability": "nonpayable",
      "type": "function"
    },
    {
      "inputs": [
        {
          "internalType": "bytes32",
          "name": "role",
          "type": "bytes32"
        },
        {
          "internalType": "address",
          "name": "account",
          "type": "address"
        }
      ],
      "name": "revokeRole",
      "outputs": [],
      "stateMutability": "nonpayable",
      "type": "function"
    },
    {
      "inputs": [],
      "name": "symbol",
      "outputs": [
        {
          "internalType": "string",
          "name": "",
          "type": "string"
        }
      ],
      "stateMutability": "view",
      "type": "function"
    },
    {
      "inputs": [],
      "name": "totalSupply",
      "outputs": [
        {
          "internalType": "uint256",
          "name": "",
          "type": "uint256"
        }
      ],
      "stateMutability": "view",
      "type": "function"
    },
    {
      "inputs": [
        {
          "internalType": "address",
          "name": "recipient",
          "type": "address"
        },
        {
          "internalType": "uint256",
          "name": "amount",
          "type": "uint256"
        }
      ],
      "name": "transfer",
      "outputs": [
        {
          "internalType": "bool",
          "name": "",
          "type": "bool"
        }
      ],
      "stateMutability": "nonpayable",
      "type": "function"
    },
    {
      "inputs": [
        {
          "internalType": "address",
          "name": "sender",
          "type": "address"
        },
        {
          "internalType": "address",
          "name": "recipient",
          "type": "address"
        },
        {
          "internalType": "uint256",
          "name": "amount",
          "type": "uint256"
        }
      ],
      "name": "transferFrom",
      "outputs": [
        {
          "internalType": "bool",
          "name": "",
          "type": "bool"
        }
      ],
      "stateMutability": "nonpayable",
      "type": "function"
    }
  ],
  "bytecode": "0x60806040523480156200001157600080fd5b50604051620017cb380380620017cb833981810160405260208110156200003757600080fd5b5051604080518082018252600a8152692b30bab63a2a37b5b2b760b11b602082810191825283518085019094526002845261159560f21b908401528151919291620000859160039162000250565b5080516200009b90600490602084019062000250565b50506005805460ff1916601217905550620000c6600080516020620017ab83398151915282620000e8565b620000e1600080516020620017ab83398151915280620000f8565b50620002fc565b620000f482826200014a565b5050565b600082815260066020526040808220600201549051839285917fbd79b86ffe0ab8e8776151514217cd7cacd52c909f66475c3af44e129f0b00ff9190a460009182526006602052604090912060020155565b60008281526006602090815260409091206200017191839062000a4e620001c5821b17901c565b15620000f45762000181620001e5565b6001600160a01b0316816001600160a01b0316837f2f8788117e7eff1d82e926ec794901d17c78024a50270940304540a733656f0d60405160405180910390a45050565b6000620001dc836001600160a01b038416620001e9565b90505b92915050565b3390565b6000620001f7838362000238565b6200022f57508154600181810184556000848152602080822090930184905584548482528286019093526040902091909155620001df565b506000620001df565b60009081526001919091016020526040902054151590565b828054600181600116156101000203166002900490600052602060002090601f016020900481019282620002885760008555620002d3565b82601f10620002a357805160ff1916838001178555620002d3565b82800160010185558215620002d3579182015b82811115620002d3578251825591602001919060010190620002b6565b50620002e1929150620002e5565b5090565b5b80821115620002e15760008155600101620002e6565b61149f806200030c6000396000f3fe608060405234801561001057600080fd5b50600436106101425760003560e01c806375b238fc116100b8578063a217fddf1161007c578063a217fddf1461040e578063a457c2d714610416578063a9059cbb14610442578063ca15c8731461046e578063d547741f1461048b578063dd62ed3e146104b757610142565b806375b238fc146103675780639010d07c1461036f57806391d14854146103ae57806395d89b41146103da5780639dc29fac146103e257610142565b80632f2ff15d1161010a5780632f2ff15d14610271578063313ce5671461029f57806336568abe146102bd57806339509351146102e957806340c10f191461031557806370a082311461034157610142565b806306fdde0314610147578063095ea7b3146101c457806318160ddd1461020457806323b872dd1461021e578063248a9ca314610254575b600080fd5b61014f6104e5565b6040805160208082528351818301528351919283929083019185019080838360005b83811015610189578181015183820152602001610171565b50505050905090810190601f1680156101b65780820380516001836020036101000a031916815260200191505b509250505060405180910390f35b6101f0600480360360408110156101da57600080fd5b506001600160a01b03813516906020013561057b565b604080519115158252519081900360200190f35b61020c610599565b60408051918252519081900360200190f35b6101f06004803603606081101561023457600080fd5b506001600160a01b0381358116916020810135909116906040013561059f565b61020c6004803603602081101561026a57600080fd5b5035610626565b61029d6004803603604081101561028757600080fd5b50803590602001356001600160a01b031661063b565b005b6102a76106a7565b6040805160ff9092168252519081900360200190f35b61029d600480360360408110156102d357600080fd5b50803590602001356001600160a01b03166106b0565b6101f0600480360360408110156102ff57600080fd5b506001600160a01b038135169060200135610711565b61029d6004803603604081101561032b57600080fd5b506001600160a01b03813516906020013561075f565b61020c6004803603602081101561035757600080fd5b50356001600160a01b03166107dd565b61020c6107f8565b6103926004803603604081101561038557600080fd5b508035906020013561081c565b604080516001600160a01b039092168252519081900360200190f35b6101f0600480360360408110156103c457600080fd5b50803590602001356001600160a01b031661083b565b61014f610853565b61029d600480360360408110156103f857600080fd5b506001600160a01b0381351690602001356108b4565b61020c610932565b6101f06004803603604081101561042c57600080fd5b506001600160a01b038135169060200135610937565b6101f06004803603604081101561045857600080fd5b506001600160a01b03813516906020013561099f565b61020c6004803603602081101561048457600080fd5b50356109b3565b61029d600480360360408110156104a157600080fd5b50803590602001356001600160a01b03166109ca565b61020c600480360360408110156104cd57600080fd5b506001600160a01b0381358116916020013516610a23565b60038054604080516020601f60026000196101006001881615020190951694909404938401819004810282018101909252828152606093909290918301828280156105715780601f1061054657610100808354040283529160200191610571565b820191906000526020600020905b81548152906001019060200180831161055457829003601f168201915b5050505050905090565b600061058f610588610a63565b8484610a67565b5060015b92915050565b60025490565b60006105ac848484610b53565b61061c846105b8610a63565b61061785604051806060016040528060288152602001611384602891396001600160a01b038a166000908152600160205260408120906105f6610a63565b6001600160a01b031681526020810191909152604001600020549190610cae565b610a67565b5060019392505050565b60009081526006602052604090206002015490565b60008281526006602052604090206002015461065e90610659610a63565b61083b565b6106995760405162461bcd60e51b815260040180806020018281038252602f8152602001806112bb602f913960400191505060405180910390fd5b6106a38282610d45565b5050565b60055460ff1690565b6106b8610a63565b6001600160a01b0316816001600160a01b0316146107075760405162461bcd60e51b815260040180806020018281038252602f81526020018061143b602f913960400191505060405180910390fd5b6106a38282610dae565b600061058f61071e610a63565b84610617856001600061072f610a63565b6001600160a01b03908116825260208083019390935260409182016000908120918c168152925290205490610e17565b6107897fa49807205ce4d355092ef5a8a18f56e8913cf4a201fbe287825b095693c217753361083b565b6107d3576040805162461bcd60e51b815260206004820152601660248201527521b0b63632b91034b9903737ba1030b71030b236b4b760511b604482015290519081900360640190fd5b6106a38282610e71565b6001600160a01b031660009081526020819052604090205490565b7fa49807205ce4d355092ef5a8a18f56e8913cf4a201fbe287825b095693c2177581565b60008281526006602052604081206108349083610f61565b9392505050565b60008281526006602052604081206108349083610f6d565b60048054604080516020601f60026000196101006001881615020190951694909404938401819004810282018101909252828152606093909290918301828280156105715780601f1061054657610100808354040283529160200191610571565b6108de7fa49807205ce4d355092ef5a8a18f56e8913cf4a201fbe287825b095693c217753361083b565b610928576040805162461bcd60e51b815260206004820152601660248201527521b0b63632b91034b9903737ba1030b71030b236b4b760511b604482015290519081900360640190fd5b6106a38282610f82565b600081565b600061058f610944610a63565b8461061785604051806060016040528060258152602001611416602591396001600061096e610a63565b6001600160a01b03908116825260208083019390935260409182016000908120918d16815292529020549190610cae565b600061058f6109ac610a63565b8484610b53565b60008181526006602052604081206105939061107e565b6000828152600660205260409020600201546109e890610659610a63565b6107075760405162461bcd60e51b81526004018080602001828103825260308152602001806113546030913960400191505060405180910390fd5b6001600160a01b03918216600090815260016020908152604080832093909416825291909152205490565b6000610834836001600160a01b038416611089565b3390565b6001600160a01b038316610aac5760405162461bcd60e51b81526004018080602001828103825260248152602001806113f26024913960400191505060405180910390fd5b6001600160a01b038216610af15760405162461bcd60e51b815260040180806020018281038252602281526020018061130c6022913960400191505060405180910390fd5b6001600160a01b03808416600081815260016020908152604080832094871680845294825291829020859055815185815291517f8c5be1e5ebec7d5bd14f71427d1e84f3dd0314c0f7b2291e5b200ac8c7c3b9259281900390910190a3505050565b6001600160a01b038316610b985760405162461bcd60e51b81526004018080602001828103825260258152602001806113cd6025913960400191505060405180910390fd5b6001600160a01b038216610bdd5760405162461bcd60e51b81526004018080602001828103825260238152602001806112986023913960400191505060405180910390fd5b610be88383836110d3565b610c258160405180606001604052806026815260200161132e602691396001600160a01b0386166000908152602081905260409020549190610cae565b6001600160a01b038085166000908152602081905260408082209390935590841681522054610c549082610e17565b6001600160a01b038084166000818152602081815260409182902094909455805185815290519193928716927fddf252ad1be2c89b69c2b068fc378daa952ba7f163c4a11628f55a4df523b3ef92918290030190a3505050565b60008184841115610d3d5760405162461bcd60e51b81526004018080602001828103825283818151815260200191508051906020019080838360005b83811015610d02578181015183820152602001610cea565b50505050905090810190601f168015610d2f5780820380516001836020036101000a031916815260200191505b509250505060405180910390fd5b505050900390565b6000828152600660205260409020610d5d9082610a4e565b156106a357610d6a610a63565b6001600160a01b0316816001600160a01b0316837f2f8788117e7eff1d82e926ec794901d17c78024a50270940304540a733656f0d60405160405180910390a45050565b6000828152600660205260409020610dc690826110d8565b156106a357610dd3610a63565b6001600160a01b0316816001600160a01b0316837ff6391f5c32d9c69d2a47ea670b442974b53935d1edc7fd64eb21e047a839171b60405160405180910390a45050565b600082820183811015610834576040805162461bcd60e51b815260206004820152601b60248201527f536166654d6174683a206164646974696f6e206f766572666c6f770000000000604482015290519081900360640190fd5b6001600160a01b038216610ecc576040805162461bcd60e51b815260206004820152601f60248201527f45524332303a206d696e7420746f20746865207a65726f206164647265737300604482015290519081900360640190fd5b610ed8600083836110d3565b600254610ee59082610e17565b6002556001600160a01b038216600090815260208190526040902054610f0b9082610e17565b6001600160a01b0383166000818152602081815260408083209490945583518581529351929391927fddf252ad1be2c89b69c2b068fc378daa952ba7f163c4a11628f55a4df523b3ef9281900390910190a35050565b600061083483836110ed565b6000610834836001600160a01b038416611151565b6001600160a01b038216610fc75760405162461bcd60e51b81526004018080602001828103825260218152602001806113ac6021913960400191505060405180910390fd5b610fd3826000836110d3565b611010816040518060600160405280602281526020016112ea602291396001600160a01b0385166000908152602081905260409020549190610cae565b6001600160a01b0383166000908152602081905260409020556002546110369082611169565b6002556040805182815290516000916001600160a01b038516917fddf252ad1be2c89b69c2b068fc378daa952ba7f163c4a11628f55a4df523b3ef9181900360200190a35050565b6000610593826111ab565b60006110958383611151565b6110cb57508154600181810184556000848152602080822090930184905584548482528286019093526040902091909155610593565b506000610593565b505050565b6000610834836001600160a01b0384166111af565b8154600090821061112f5760405162461bcd60e51b81526004018080602001828103825260228152602001806112766022913960400191505060405180910390fd5b82600001828154811061113e57fe5b9060005260206000200154905092915050565b60009081526001919091016020526040902054151590565b600061083483836040518060400160405280601e81526020017f536166654d6174683a207375627472616374696f6e206f766572666c6f770000815250610cae565b5490565b6000818152600183016020526040812054801561126b57835460001980830191908101906000908790839081106111e257fe5b90600052602060002001549050808760000184815481106111ff57fe5b60009182526020808320909101929092558281526001898101909252604090209084019055865487908061122f57fe5b60019003818190600052602060002001600090559055866001016000878152602001908152602001600020600090556001945050505050610593565b600091505061059356fe456e756d657261626c655365743a20696e646578206f7574206f6620626f756e647345524332303a207472616e7366657220746f20746865207a65726f2061646472657373416363657373436f6e74726f6c3a2073656e646572206d75737420626520616e2061646d696e20746f206772616e7445524332303a206275726e20616d6f756e7420657863656564732062616c616e636545524332303a20617070726f766520746f20746865207a65726f206164647265737345524332303a207472616e7366657220616d6f756e7420657863656564732062616c616e6365416363657373436f6e74726f6c3a2073656e646572206d75737420626520616e2061646d696e20746f207265766f6b6545524332303a207472616e7366657220616d6f756e74206578636565647320616c6c6f77616e636545524332303a206275726e2066726f6d20746865207a65726f206164647265737345524332303a207472616e736665722066726f6d20746865207a65726f206164647265737345524332303a20617070726f76652066726f6d20746865207a65726f206164647265737345524332303a2064656372656173656420616c6c6f77616e63652062656c6f77207a65726f416363657373436f6e74726f6c3a2063616e206f6e6c792072656e6f756e636520726f6c657320666f722073656c66a2646970667358221220224c96c248508a7465a699794de7d4a72b9e6c78c3a4ff49f46b5ac5ad72bdae64736f6c63430007040033a49807205ce4d355092ef5a8a18f56e8913cf4a201fbe287825b095693c21775",
  "linkReferences": {},
  "deployedLinkReferences": {}
}