{
  "_format": "hh-sol-artifact-1",
  "contractName": "MockToken",
  "sourceName": "contracts/mocks/mockToken.sol",
  "abi": [
    {
      "inputs": [],
      "stateMutability": "nonpayable",
      "type": "constructor"
    },
    {
      "anonymous": false,
      "inputs": [
        {
          "indexed": true,
          "internalType": "address",
          "name": "owner",
          "type": "address"
        },
        {
          "indexed": true,
          "internalType": "address",
          "name": "spender",
          "type": "address"
        },
        {
          "indexed": false,
          "internalType": "uint256",
          "name": "value",
          "type": "uint256"
        }
      ],
      "name": "Approval",
      "type": "event"
    },
    {
      "anonymous": false,
      "inputs": [
        {
          "indexed": true,
          "internalType": "address",
          "name": "from",
          "type": "address"
        },
        {
          "indexed": true,
          "internalType": "address",
          "name": "to",
          "type": "address"
        },
        {
          "indexed": false,
          "internalType": "uint256",
          "name": "value",
          "type": "uint256"
        }
      ],
      "name": "Transfer",
      "type": "event"
    },
    {
      "inputs": [
        {
          "internalType": "address",
          "name": "owner",
          "type": "address"
        },
        {
          "internalType": "address",
          "name": "spender",
          "type": "address"
        }
      ],
      "name": "allowance",
      "outputs": [
        {
          "internalType": "uint256",
          "name": "",
          "type": "uint256"
        }
      ],
      "stateMutability": "view",
      "type": "function"
    },
    {
      "inputs": [
        {
          "internalType": "address",
          "name": "spender",
          "type": "address"
        },
        {
          "internalType": "uint256",
          "name": "amount",
          "type": "uint256"
        }
      ],
      "name": "approve",
      "outputs": [
        {
          "internalType": "bool",
          "name": "",
          "type": "bool"
        }
      ],
      "stateMutability": "nonpayable",
      "type": "function"
    },
    {
      "inputs": [
        {
          "internalType": "address",
          "name": "account",
          "type": "address"
        }
      ],
      "name": "balanceOf",
      "outputs": [
        {
          "internalType": "uint256",
          "name": "",
          "type": "uint256"
        }
      ],
      "stateMutability": "view",
      "type": "function"
    },
    {
      "inputs": [],
      "name": "decimals",
      "outputs": [
        {
          "internalType": "uint8",
          "name": "",
          "type": "uint8"
        }
      ],
      "stateMutability": "view",
      "type": "function"
    },
    {
      "inputs": [
        {
          "internalType": "address",
          "name": "spender",
          "type": "address"
        },
        {
          "internalType": "uint256",
          "name": "subtractedValue",
          "type": "uint256"
        }
      ],
      "name": "decreaseAllowance",
      "outputs": [
        {
          "internalType": "bool",
          "name": "",
          "type": "bool"
        }
      ],
      "stateMutability": "nonpayable",
      "type": "function"
    },
    {
      "inputs": [
        {
          "internalType": "address",
          "name": "delegatee",
          "type": "address"
        }
      ],
      "name": "delegate",
      "outputs": [],
      "stateMutability": "nonpayable",
      "type": "function"
    },
    {
      "inputs": [
        {
          "internalType": "address",
          "name": "",
          "type": "address"
        }
      ],
      "name": "delegates",
      "outputs": [
        {
          "internalType": "address",
          "name": "",
          "type": "address"
        }
      ],
      "stateMutability": "view",
      "type": "function"
    },
    {
      "inputs": [
        {
          "internalType": "address",
          "name": "spender",
          "type": "address"
        },
        {
          "internalType": "uint256",
          "name": "addedValue",
          "type": "uint256"
        }
      ],
      "name": "increaseAllowance",
      "outputs": [
        {
          "internalType": "bool",
          "name": "",
          "type": "bool"
        }
      ],
      "stateMutability": "nonpayable",
      "type": "function"
    },
    {
      "inputs": [],
      "name": "name",
      "outputs": [
        {
          "internalType": "string",
          "name": "",
          "type": "string"
        }
      ],
      "stateMutability": "view",
      "type": "function"
    },
    {
      "inputs": [],
      "name": "symbol",
      "outputs": [
        {
          "internalType": "string",
          "name": "",
          "type": "string"
        }
      ],
      "stateMutability": "view",
      "type": "function"
    },
    {
      "inputs": [],
      "name": "totalSupply",
      "outputs": [
        {
          "internalType": "uint256",
          "name": "",
          "type": "uint256"
        }
      ],
      "stateMutability": "view",
      "type": "function"
    },
    {
      "inputs": [
        {
          "internalType": "address",
          "name": "recipient",
          "type": "address"
        },
        {
          "internalType": "uint256",
          "name": "amount",
          "type": "uint256"
        }
      ],
      "name": "transfer",
      "outputs": [
        {
          "internalType": "bool",
          "name": "",
          "type": "bool"
        }
      ],
      "stateMutability": "nonpayable",
      "type": "function"
    },
    {
      "inputs": [
        {
          "internalType": "address",
          "name": "sender",
          "type": "address"
        },
        {
          "internalType": "address",
          "name": "recipient",
          "type": "address"
        },
        {
          "internalType": "uint256",
          "name": "amount",
          "type": "uint256"
        }
      ],
      "name": "transferFrom",
      "outputs": [
        {
          "internalType": "bool",
          "name": "",
          "type": "bool"
        }
      ],
      "stateMutability": "nonpayable",
      "type": "function"
    }
  ],
  "bytecode": "0x60806040523480156200001157600080fd5b50604080518082018252600981526826b7b1b5aa37b5b2b760b91b602080830191825283518085019094526002845261135560f21b9084015281519192916200005d9160039162000214565b5080516200007390600490602084019062000214565b50506005805460ff1916601217905550620000983368056bc75e2d631000006200009e565b620002c0565b6001600160a01b038216620000fa576040805162461bcd60e51b815260206004820152601f60248201527f45524332303a206d696e7420746f20746865207a65726f206164647265737300604482015290519081900360640190fd5b6200010860008383620001ad565b6200012481600254620001b260201b6200064d1790919060201c565b6002556001600160a01b03821660009081526020818152604090912054620001579183906200064d620001b2821b17901c565b6001600160a01b0383166000818152602081815260408083209490945583518581529351929391927fddf252ad1be2c89b69c2b068fc378daa952ba7f163c4a11628f55a4df523b3ef9281900390910190a35050565b505050565b6000828201838110156200020d576040805162461bcd60e51b815260206004820152601b60248201527f536166654d6174683a206164646974696f6e206f766572666c6f770000000000604482015290519081900360640190fd5b9392505050565b828054600181600116156101000203166002900490600052602060002090601f0160209004810192826200024c576000855562000297565b82601f106200026757805160ff191683800117855562000297565b8280016001018555821562000297579182015b82811115620002975782518255916020019190600101906200027a565b50620002a5929150620002a9565b5090565b5b80821115620002a55760008155600101620002aa565b610acc80620002d06000396000f3fe608060405234801561001057600080fd5b50600436106100cf5760003560e01c8063587cde1e1161008c57806395d89b411161006657806395d89b41146102bb578063a457c2d7146102c3578063a9059cbb146102ef578063dd62ed3e1461031b576100cf565b8063587cde1e1461022b5780635c19a95c1461026d57806370a0823114610295576100cf565b806306fdde03146100d4578063095ea7b31461015157806318160ddd1461019157806323b872dd146101ab578063313ce567146101e157806339509351146101ff575b600080fd5b6100dc610349565b6040805160208082528351818301528351919283929083019185019080838360005b838110156101165781810151838201526020016100fe565b50505050905090810190601f1680156101435780820380516001836020036101000a031916815260200191505b509250505060405180910390f35b61017d6004803603604081101561016757600080fd5b506001600160a01b0381351690602001356103df565b604080519115158252519081900360200190f35b6101996103fc565b60408051918252519081900360200190f35b61017d600480360360608110156101c157600080fd5b506001600160a01b03813581169160208101359091169060400135610402565b6101e9610489565b6040805160ff9092168252519081900360200190f35b61017d6004803603604081101561021557600080fd5b506001600160a01b038135169060200135610492565b6102516004803603602081101561024157600080fd5b50356001600160a01b03166104e0565b604080516001600160a01b039092168252519081900360200190f35b6102936004803603602081101561028357600080fd5b50356001600160a01b03166104fb565b005b610199600480360360208110156102ab57600080fd5b50356001600160a01b031661052a565b6100dc610545565b61017d600480360360408110156102d957600080fd5b506001600160a01b0381351690602001356105a6565b61017d6004803603604081101561030557600080fd5b506001600160a01b03813516906020013561060e565b6101996004803603604081101561033157600080fd5b506001600160a01b0381358116916020013516610622565b60038054604080516020601f60026000196101006001881615020190951694909404938401819004810282018101909252828152606093909290918301828280156103d55780601f106103aa576101008083540402835291602001916103d5565b820191906000526020600020905b8154815290600101906020018083116103b857829003601f168201915b5050505050905090565b60006103f36103ec6106ae565b84846106b2565b50600192915050565b60025490565b600061040f84848461079e565b61047f8461041b6106ae565b61047a85604051806060016040528060288152602001610a01602891396001600160a01b038a166000908152600160205260408120906104596106ae565b6001600160a01b0316815260208101919091526040016000205491906108f9565b6106b2565b5060019392505050565b60055460ff1690565b60006103f361049f6106ae565b8461047a85600160006104b06106ae565b6001600160a01b03908116825260208083019390935260409182016000908120918c16815292529020549061064d565b6006602052600090815260409020546001600160a01b031681565b33600090815260066020526040902080546001600160a01b0319166001600160a01b0392909216919091179055565b6001600160a01b031660009081526020819052604090205490565b60048054604080516020601f60026000196101006001881615020190951694909404938401819004810282018101909252828152606093909290918301828280156103d55780601f106103aa576101008083540402835291602001916103d5565b60006103f36105b36106ae565b8461047a85604051806060016040528060258152602001610a7260259139600160006105dd6106ae565b6001600160a01b03908116825260208083019390935260409182016000908120918d168152925290205491906108f9565b60006103f361061b6106ae565b848461079e565b6001600160a01b03918216600090815260016020908152604080832093909416825291909152205490565b6000828201838110156106a7576040805162461bcd60e51b815260206004820152601b60248201527f536166654d6174683a206164646974696f6e206f766572666c6f770000000000604482015290519081900360640190fd5b9392505050565b3390565b6001600160a01b0383166106f75760405162461bcd60e51b8152600401808060200182810382526024815260200180610a4e6024913960400191505060405180910390fd5b6001600160a01b03821661073c5760405162461bcd60e51b81526004018080602001828103825260228152602001806109b96022913960400191505060405180910390fd5b6001600160a01b03808416600081815260016020908152604080832094871680845294825291829020859055815185815291517f8c5be1e5ebec7d5bd14f71427d1e84f3dd0314c0f7b2291e5b200ac8c7c3b9259281900390910190a3505050565b6001600160a01b0383166107e35760405162461bcd60e51b8152600401808060200182810382526025815260200180610a296025913960400191505060405180910390fd5b6001600160a01b0382166108285760405162461bcd60e51b81526004018080602001828103825260238152602001806109966023913960400191505060405180910390fd5b610833838383610990565b610870816040518060600160405280602681526020016109db602691396001600160a01b03861660009081526020819052604090205491906108f9565b6001600160a01b03808516600090815260208190526040808220939093559084168152205461089f908261064d565b6001600160a01b038084166000818152602081815260409182902094909455805185815290519193928716927fddf252ad1be2c89b69c2b068fc378daa952ba7f163c4a11628f55a4df523b3ef92918290030190a3505050565b600081848411156109885760405162461bcd60e51b81526004018080602001828103825283818151815260200191508051906020019080838360005b8381101561094d578181015183820152602001610935565b50505050905090810190601f16801561097a5780820380516001836020036101000a031916815260200191505b509250505060405180910390fd5b505050900390565b50505056fe45524332303a207472616e7366657220746f20746865207a65726f206164647265737345524332303a20617070726f766520746f20746865207a65726f206164647265737345524332303a207472616e7366657220616d6f756e7420657863656564732062616c616e636545524332303a207472616e7366657220616d6f756e74206578636565647320616c6c6f77616e636545524332303a207472616e736665722066726f6d20746865207a65726f206164647265737345524332303a20617070726f76652066726f6d20746865207a65726f206164647265737345524332303a2064656372656173656420616c6c6f77616e63652062656c6f77207a65726fa2646970667358221220067b73545499e66df6b189bb1c3605972d26cc201f4ae96d23108c97bf202cdd64736f6c63430007040033",
  "linkReferences": {},
  "deployedLinkReferences": {}
}