{
  "_format": "hh-sol-artifact-1",
  "contractName": "MockGovernorAlpha",
  "sourceName": "contracts/mocks/mockGovernorAlpha.sol",
  "abi": [
    {
      "inputs": [],
      "name": "proposalCount",
      "outputs": [
        {
          "internalType": "uint256",
          "name": "",
          "type": "uint256"
        }
      ],
      "stateMutability": "view",
      "type": "function"
    },
    {
      "inputs": [
        {
          "internalType": "uint256",
          "name": "",
          "type": "uint256"
        }
      ],
      "name": "proposals",
      "outputs": [
        {
          "internalType": "uint256",
          "name": "id",
          "type": "uint256"
        },
        {
          "internalType": "uint256",
          "name": "forVotes",
          "type": "uint256"
        },
        {
          "internalType": "uint256",
          "name": "againstVotes",
          "type": "uint256"
        }
      ],
      "stateMutability": "view",
      "type": "function"
    }
  ],
  "bytecode": "0x608060405234801561001057600080fd5b5060e38061001f6000396000f3fe6080604052348015600f57600080fd5b506004361060325760003560e01c8063013cf08b146037578063da35c66414606f575b600080fd5b605160048036036020811015604b57600080fd5b50356087565b60408051938452602084019290925282820152519081900360600190f35b607560a7565b60408051918252519081900360200190f35b600160208190526000918252604090912080549181015460029091015483565b6000548156fea2646970667358221220f6b68a7b30da6928a5e0b36083fdf920746940dccd0c8e0c129fa2091a73872764736f6c63430007040033",
  "linkReferences": {},
  "deployedLinkReferences": {}
}