{
  "_format": "hh-sol-artifact-1",
  "contractName": "VaultNFT",
  "sourceName": "contracts/VaultNFT.sol",
  "abi": [
    {
      "inputs": [
        {
          "internalType": "address",
          "name": "admin",
          "type": "address"
        }
      ],
      "stateMutability": "nonpayable",
      "type": "constructor"
    },
    {
      "anonymous": false,
      "inputs": [
        {
          "indexed": true,
          "internalType": "address",
          "name": "owner",
          "type": "address"
        },
        {
          "indexed": true,
          "internalType": "address",
          "name": "approved",
          "type": "address"
        },
        {
          "indexed": true,
          "internalType": "uint256",
          "name": "tokenId",
          "type": "uint256"
        }
      ],
      "name": "Approval",
      "type": "event"
    },
    {
      "anonymous": false,
      "inputs": [
        {
          "indexed": true,
          "internalType": "address",
          "name": "owner",
          "type": "address"
        },
        {
          "indexed": true,
          "internalType": "address",
          "name": "operator",
          "type": "address"
        },
        {
          "indexed": false,
          "internalType": "bool",
          "name": "approved",
          "type": "bool"
        }
      ],
      "name": "ApprovalForAll",
      "type": "event"
    },
    {
      "anonymous": false,
      "inputs": [
        {
          "indexed": true,
          "internalType": "bytes32",
          "name": "role",
          "type": "bytes32"
        },
        {
          "indexed": true,
          "internalType": "bytes32",
          "name": "previousAdminRole",
          "type": "bytes32"
        },
        {
          "indexed": true,
          "internalType": "bytes32",
          "name": "newAdminRole",
          "type": "bytes32"
        }
      ],
      "name": "RoleAdminChanged",
      "type": "event"
    },
    {
      "anonymous": false,
      "inputs": [
        {
          "indexed": true,
          "internalType": "bytes32",
          "name": "role",
          "type": "bytes32"
        },
        {
          "indexed": true,
          "internalType": "address",
          "name": "account",
          "type": "address"
        },
        {
          "indexed": true,
          "internalType": "address",
          "name": "sender",
          "type": "address"
        }
      ],
      "name": "RoleGranted",
      "type": "event"
    },
    {
      "anonymous": false,
      "inputs": [
        {
          "indexed": true,
          "internalType": "bytes32",
          "name": "role",
          "type": "bytes32"
        },
        {
          "indexed": true,
          "internalType": "address",
          "name": "account",
          "type": "address"
        },
        {
          "indexed": true,
          "internalType": "address",
          "name": "sender",
          "type": "address"
        }
      ],
      "name": "RoleRevoked",
      "type": "event"
    },
    {
      "anonymous": false,
      "inputs": [
        {
          "indexed": true,
          "internalType": "address",
          "name": "from",
          "type": "address"
        },
        {
          "indexed": true,
          "internalType": "address",
          "name": "to",
          "type": "address"
        },
        {
          "indexed": true,
          "internalType": "uint256",
          "name": "tokenId",
          "type": "uint256"
        }
      ],
      "name": "Transfer",
      "type": "event"
    },
    {
      "inputs": [],
      "name": "ADMIN_ROLE",
      "outputs": [
        {
          "internalType": "bytes32",
          "name": "",
          "type": "bytes32"
        }
      ],
      "stateMutability": "view",
      "type": "function"
    },
    {
      "inputs": [],
      "name": "DEFAULT_ADMIN_ROLE",
      "outputs": [
        {
          "internalType": "bytes32",
          "name": "",
          "type": "bytes32"
        }
      ],
      "stateMutability": "view",
      "type": "function"
    },
    {
      "inputs": [
        {
          "internalType": "address",
          "name": "to",
          "type": "address"
        },
        {
          "internalType": "uint256",
          "name": "tokenId",
          "type": "uint256"
        }
      ],
      "name": "approve",
      "outputs": [],
      "stateMutability": "nonpayable",
      "type": "function"
    },
    {
      "inputs": [
        {
          "internalType": "address",
          "name": "owner",
          "type": "address"
        }
      ],
      "name": "balanceOf",
      "outputs": [
        {
          "internalType": "uint256",
          "name": "",
          "type": "uint256"
        }
      ],
      "stateMutability": "view",
      "type": "function"
    },
    {
      "inputs": [],
      "name": "baseURI",
      "outputs": [
        {
          "internalType": "string",
          "name": "",
          "type": "string"
        }
      ],
      "stateMutability": "view",
      "type": "function"
    },
    {
      "inputs": [
        {
          "internalType": "uint256",
          "name": "vaultId",
          "type": "uint256"
        }
      ],
      "name": "burn",
      "outputs": [],
      "stateMutability": "nonpayable",
      "type": "function"
    },
    {
      "inputs": [
        {
          "internalType": "uint256",
          "name": "tokenId",
          "type": "uint256"
        }
      ],
      "name": "getApproved",
      "outputs": [
        {
          "internalType": "address",
          "name": "",
          "type": "address"
        }
      ],
      "stateMutability": "view",
      "type": "function"
    },
    {
      "inputs": [
        {
          "internalType": "bytes32",
          "name": "role",
          "type": "bytes32"
        }
      ],
      "name": "getRoleAdmin",
      "outputs": [
        {
          "internalType": "bytes32",
          "name": "",
          "type": "bytes32"
        }
      ],
      "stateMutability": "view",
      "type": "function"
    },
    {
      "inputs": [
        {
          "internalType": "bytes32",
          "name": "role",
          "type": "bytes32"
        },
        {
          "internalType": "uint256",
          "name": "index",
          "type": "uint256"
        }
      ],
      "name": "getRoleMember",
      "outputs": [
        {
          "internalType": "address",
          "name": "",
          "type": "address"
        }
      ],
      "stateMutability": "view",
      "type": "function"
    },
    {
      "inputs": [
        {
          "internalType": "bytes32",
          "name": "role",
          "type": "bytes32"
        }
      ],
      "name": "getRoleMemberCount",
      "outputs": [
        {
          "internalType": "uint256",
          "name": "",
          "type": "uint256"
        }
      ],
      "stateMutability": "view",
      "type": "function"
    },
    {
      "inputs": [
        {
          "internalType": "bytes32",
          "name": "role",
          "type": "bytes32"
        },
        {
          "internalType": "address",
          "name": "account",
          "type": "address"
        }
      ],
      "name": "grantRole",
      "outputs": [],
      "stateMutability": "nonpayable",
      "type": "function"
    },
    {
      "inputs": [
        {
          "internalType": "bytes32",
          "name": "role",
          "type": "bytes32"
        },
        {
          "internalType": "address",
          "name": "account",
          "type": "address"
        }
      ],
      "name": "hasRole",
      "outputs": [
        {
          "internalType": "bool",
          "name": "",
          "type": "bool"
        }
      ],
      "stateMutability": "view",
      "type": "function"
    },
    {
      "inputs": [
        {
          "internalType": "address",
          "name": "owner",
          "type": "address"
        },
        {
          "internalType": "address",
          "name": "operator",
          "type": "address"
        }
      ],
      "name": "isApprovedForAll",
      "outputs": [
        {
          "internalType": "bool",
          "name": "",
          "type": "bool"
        }
      ],
      "stateMutability": "view",
      "type": "function"
    },
    {
      "inputs": [
        {
          "internalType": "address",
          "name": "account",
          "type": "address"
        }
      ],
      "name": "mint",
      "outputs": [
        {
          "internalType": "uint256",
          "name": "",
          "type": "uint256"
        }
      ],
      "stateMutability": "nonpayable",
      "type": "function"
    },
    {
      "inputs": [],
      "name": "name",
      "outputs": [
        {
          "internalType": "string",
          "name": "",
          "type": "string"
        }
      ],
      "stateMutability": "view",
      "type": "function"
    },
    {
      "inputs": [
        {
          "internalType": "uint256",
          "name": "tokenId",
          "type": "uint256"
        }
      ],
      "name": "ownerOf",
      "outputs": [
        {
          "internalType": "address",
          "name": "",
          "type": "address"
        }
      ],
      "stateMutability": "view",
      "type": "function"
    },
    {
      "inputs": [
        {
          "internalType": "bytes32",
          "name": "role",
          "type": "bytes32"
        },
        {
          "internalType": "address",
          "name": "account",
          "type": "address"
        }
      ],
      "name": "renounceRole",
      "outputs": [],
      "stateMutability": "nonpayable",
      "type": "function"
    },
    {
      "inputs": [
        {
          "internalType": "bytes32",
          "name": "role",
          "type": "bytes32"
        },
        {
          "internalType": "address",
          "name": "account",
          "type": "address"
        }
      ],
      "name": "revokeRole",
      "outputs": [],
      "stateMutability": "nonpayable",
      "type": "function"
    },
    {
      "inputs": [
        {
          "internalType": "address",
          "name": "from",
          "type": "address"
        },
        {
          "internalType": "address",
          "name": "to",
          "type": "address"
        },
        {
          "internalType": "uint256",
          "name": "tokenId",
          "type": "uint256"
        }
      ],
      "name": "safeTransferFrom",
      "outputs": [],
      "stateMutability": "nonpayable",
      "type": "function"
    },
    {
      "inputs": [
        {
          "internalType": "address",
          "name": "from",
          "type": "address"
        },
        {
          "internalType": "address",
          "name": "to",
          "type": "address"
        },
        {
          "internalType": "uint256",
          "name": "tokenId",
          "type": "uint256"
        },
        {
          "internalType": "bytes",
          "name": "_data",
          "type": "bytes"
        }
      ],
      "name": "safeTransferFrom",
      "outputs": [],
      "stateMutability": "nonpayable",
      "type": "function"
    },
    {
      "inputs": [
        {
          "internalType": "address",
          "name": "operator",
          "type": "address"
        },
        {
          "internalType": "bool",
          "name": "approved",
          "type": "bool"
        }
      ],
      "name": "setApprovalForAll",
      "outputs": [],
      "stateMutability": "nonpayable",
      "type": "function"
    },
    {
      "inputs": [
        {
          "internalType": "bytes4",
          "name": "interfaceId",
          "type": "bytes4"
        }
      ],
      "name": "supportsInterface",
      "outputs": [
        {
          "internalType": "bool",
          "name": "",
          "type": "bool"
        }
      ],
      "stateMutability": "view",
      "type": "function"
    },
    {
      "inputs": [],
      "name": "symbol",
      "outputs": [
        {
          "internalType": "string",
          "name": "",
          "type": "string"
        }
      ],
      "stateMutability": "view",
      "type": "function"
    },
    {
      "inputs": [
        {
          "internalType": "uint256",
          "name": "index",
          "type": "uint256"
        }
      ],
      "name": "tokenByIndex",
      "outputs": [
        {
          "internalType": "uint256",
          "name": "",
          "type": "uint256"
        }
      ],
      "stateMutability": "view",
      "type": "function"
    },
    {
      "inputs": [
        {
          "internalType": "address",
          "name": "owner",
          "type": "address"
        },
        {
          "internalType": "uint256",
          "name": "index",
          "type": "uint256"
        }
      ],
      "name": "tokenOfOwnerByIndex",
      "outputs": [
        {
          "internalType": "uint256",
          "name": "",
          "type": "uint256"
        }
      ],
      "stateMutability": "view",
      "type": "function"
    },
    {
      "inputs": [
        {
          "internalType": "uint256",
          "name": "tokenId",
          "type": "uint256"
        }
      ],
      "name": "tokenURI",
      "outputs": [
        {
          "internalType": "string",
          "name": "",
          "type": "string"
        }
      ],
      "stateMutability": "view",
      "type": "function"
    },
    {
      "inputs": [],
      "name": "totalSupply",
      "outputs": [
        {
          "internalType": "uint256",
          "name": "",
          "type": "uint256"
        }
      ],
      "stateMutability": "view",
      "type": "function"
    },
    {
      "inputs": [
        {
          "internalType": "address",
          "name": "from",
          "type": "address"
        },
        {
          "internalType": "address",
          "name": "to",
          "type": "address"
        },
        {
          "internalType": "uint256",
          "name": "tokenId",
          "type": "uint256"
        }
      ],
      "name": "transferFrom",
      "outputs": [],
      "stateMutability": "nonpayable",
      "type": "function"
    }
  ],
  "bytecode": "0x60806040523480156200001157600080fd5b506040516200275f3803806200275f833981810160405260208110156200003757600080fd5b5051604080518082018252600881526715985d5b1d13919560c21b602082810191909152825180840190935260048352631593919560e21b9083015290620000866301ffc9a760e01b62000128565b81516200009b90600690602085019062000315565b508051620000b190600790602084019062000315565b50620000c46380ac58cd60e01b62000128565b620000d6635b5e139f60e01b62000128565b620000e863780e9d6360e01b62000128565b506200010690506000805160206200273f83398151915282620001ad565b620001216000805160206200273f83398151915280620001bd565b50620003c1565b6001600160e01b0319808216141562000188576040805162461bcd60e51b815260206004820152601c60248201527f4552433136353a20696e76616c696420696e7465726661636520696400000000604482015290519081900360640190fd5b6001600160e01b0319166000908152602081905260409020805460ff19166001179055565b620001b982826200020f565b5050565b6000828152600a6020526040808220600201549051839285917fbd79b86ffe0ab8e8776151514217cd7cacd52c909f66475c3af44e129f0b00ff9190a46000918252600a602052604090912060020155565b6000828152600a6020908152604090912062000236918390620011b06200028a821b17901c565b15620001b95762000246620002aa565b6001600160a01b0316816001600160a01b0316837f2f8788117e7eff1d82e926ec794901d17c78024a50270940304540a733656f0d60405160405180910390a45050565b6000620002a1836001600160a01b038416620002ae565b90505b92915050565b3390565b6000620002bc8383620002fd565b620002f457508154600181810184556000848152602080822090930184905584548482528286019093526040902091909155620002a4565b506000620002a4565b60009081526001919091016020526040902054151590565b828054600181600116156101000203166002900490600052602060002090601f0160209004810192826200034d576000855562000398565b82601f106200036857805160ff191683800117855562000398565b8280016001018555821562000398579182015b82811115620003985782518255916020019190600101906200037b565b50620003a6929150620003aa565b5090565b5b80821115620003a65760008155600101620003ab565b61236e80620003d16000396000f3fe608060405234801561001057600080fd5b50600436106101c45760003560e01c80636a627842116100f9578063a217fddf11610097578063c87b56dd11610071578063c87b56dd14610615578063ca15c87314610632578063d547741f1461064f578063e985e9c51461067b576101c4565b8063a217fddf14610519578063a22cb46514610521578063b88d4fde1461054f576101c4565b806375b238fc116100d357806375b238fc146104ba5780639010d07c146104c257806391d14854146104e557806395d89b4114610511576101c4565b80636a627842146104665780636c0360eb1461048c57806370a0823114610494576101c4565b80632f2ff15d1161016657806342842e0e1161014057806342842e0e146103d957806342966c681461040f5780634f6ccce71461042c5780636352211e14610449576101c4565b80632f2ff15d146103555780632f745c591461038157806336568abe146103ad576101c4565b8063095ea7b3116101a2578063095ea7b3146102ba57806318160ddd146102e857806323b872dd14610302578063248a9ca314610338576101c4565b806301ffc9a7146101c957806306fdde0314610204578063081812fc14610281575b600080fd5b6101f0600480360360208110156101df57600080fd5b50356001600160e01b0319166106a9565b604080519115158252519081900360200190f35b61020c6106cc565b6040805160208082528351818301528351919283929083019185019080838360005b8381101561024657818101518382015260200161022e565b50505050905090810190601f1680156102735780820380516001836020036101000a031916815260200191505b509250505060405180910390f35b61029e6004803603602081101561029757600080fd5b5035610762565b604080516001600160a01b039092168252519081900360200190f35b6102e6600480360360408110156102d057600080fd5b506001600160a01b0381351690602001356107c4565b005b6102f061089f565b60408051918252519081900360200190f35b6102e66004803603606081101561031857600080fd5b506001600160a01b038135811691602081013590911690604001356108b0565b6102f06004803603602081101561034e57600080fd5b5035610907565b6102e66004803603604081101561036b57600080fd5b50803590602001356001600160a01b031661091c565b6102f06004803603604081101561039757600080fd5b506001600160a01b038135169060200135610988565b6102e6600480360360408110156103c357600080fd5b50803590602001356001600160a01b03166109b3565b6102e6600480360360608110156103ef57600080fd5b506001600160a01b03813581169160208101359091169060400135610a14565b6102e66004803603602081101561042557600080fd5b5035610a2f565b6102f06004803603602081101561044257600080fd5b5035610aaf565b61029e6004803603602081101561045f57600080fd5b5035610ac5565b6102f06004803603602081101561047c57600080fd5b50356001600160a01b0316610aed565b61020c610b85565b6102f0600480360360208110156104aa57600080fd5b50356001600160a01b0316610be6565b6102f0610c4e565b61029e600480360360408110156104d857600080fd5b5080359060200135610c72565b6101f0600480360360408110156104fb57600080fd5b50803590602001356001600160a01b0316610c8a565b61020c610ca2565b6102f0610d03565b6102e66004803603604081101561053757600080fd5b506001600160a01b0381351690602001351515610d08565b6102e66004803603608081101561056557600080fd5b6001600160a01b038235811692602081013590911691604082013591908101906080810160608201356401000000008111156105a057600080fd5b8201836020820111156105b257600080fd5b803590602001918460018302840111640100000000831117156105d457600080fd5b91908080601f016020809104026020016040519081016040528093929190818152602001838380828437600092019190915250929550610e0d945050505050565b61020c6004803603602081101561062b57600080fd5b5035610e6b565b6102f06004803603602081101561064857600080fd5b5035611112565b6102e66004803603604081101561066557600080fd5b50803590602001356001600160a01b0316611129565b6101f06004803603604081101561069157600080fd5b506001600160a01b0381358116916020013516611182565b6001600160e01b0319811660009081526020819052604090205460ff165b919050565b60068054604080516020601f60026000196101006001881615020190951694909404938401819004810282018101909252828152606093909290918301828280156107585780601f1061072d57610100808354040283529160200191610758565b820191906000526020600020905b81548152906001019060200180831161073b57829003601f168201915b5050505050905090565b600061076d826111c5565b6107a85760405162461bcd60e51b815260040180806020018281038252602c815260200180612234602c913960400191505060405180910390fd5b506000908152600460205260409020546001600160a01b031690565b60006107cf82610ac5565b9050806001600160a01b0316836001600160a01b031614156108225760405162461bcd60e51b81526004018080602001828103825260218152602001806122b86021913960400191505060405180910390fd5b806001600160a01b03166108346111d2565b6001600160a01b031614806108555750610855816108506111d2565b611182565b6108905760405162461bcd60e51b81526004018080602001828103825260388152602001806121876038913960400191505060405180910390fd5b61089a83836111d6565b505050565b60006108ab6002611244565b905090565b6108c16108bb6111d2565b8261124f565b6108fc5760405162461bcd60e51b81526004018080602001828103825260318152602001806122d96031913960400191505060405180910390fd5b61089a8383836112f3565b6000908152600a602052604090206002015490565b6000828152600a602052604090206002015461093f9061093a6111d2565b610c8a565b61097a5760405162461bcd60e51b815260040180806020018281038252602f8152602001806120a6602f913960400191505060405180910390fd5b610984828261143f565b5050565b6001600160a01b03821660009081526001602052604081206109aa90836114a8565b90505b92915050565b6109bb6111d2565b6001600160a01b0316816001600160a01b031614610a0a5760405162461bcd60e51b815260040180806020018281038252602f81526020018061230a602f913960400191505060405180910390fd5b61098482826114b4565b61089a83838360405180602001604052806000815250610e0d565b610a597fa49807205ce4d355092ef5a8a18f56e8913cf4a201fbe287825b095693c2177533610c8a565b610aa3576040805162461bcd60e51b815260206004820152601660248201527521b0b63632b91034b9903737ba1030b71030b236b4b760511b604482015290519081900360640190fd5b610aac8161151d565b50565b600080610abd6002846115ea565b509392505050565b60006109ad826040518060600160405280602981526020016121e96029913960029190611606565b6000610b197fa49807205ce4d355092ef5a8a18f56e8913cf4a201fbe287825b095693c2177533610c8a565b610b63576040805162461bcd60e51b815260206004820152601660248201527521b0b63632b91034b9903737ba1030b71030b236b4b760511b604482015290519081900360640190fd5b610b6d600b61161d565b6000610b79600b611626565b90506109ad838261162a565b60098054604080516020601f60026000196101006001881615020190951694909404938401819004810282018101909252828152606093909290918301828280156107585780601f1061072d57610100808354040283529160200191610758565b60006001600160a01b038216610c2d5760405162461bcd60e51b815260040180806020018281038252602a8152602001806121bf602a913960400191505060405180910390fd5b6001600160a01b03821660009081526001602052604090206109ad90611244565b7fa49807205ce4d355092ef5a8a18f56e8913cf4a201fbe287825b095693c2177581565b6000828152600a602052604081206109aa90836114a8565b6000828152600a602052604081206109aa9083611758565b60078054604080516020601f60026000196101006001881615020190951694909404938401819004810282018101909252828152606093909290918301828280156107585780601f1061072d57610100808354040283529160200191610758565b600081565b610d106111d2565b6001600160a01b0316826001600160a01b03161415610d76576040805162461bcd60e51b815260206004820152601960248201527f4552433732313a20617070726f766520746f2063616c6c657200000000000000604482015290519081900360640190fd5b8060056000610d836111d2565b6001600160a01b03908116825260208083019390935260409182016000908120918716808252919093529120805460ff191692151592909217909155610dc76111d2565b6001600160a01b03167f17307eab39ab6107e8899845ad3d59bd9653f200f220920489ca2b5937696c318360405180821515815260200191505060405180910390a35050565b610e1e610e186111d2565b8361124f565b610e595760405162461bcd60e51b81526004018080602001828103825260318152602001806122d96031913960400191505060405180910390fd5b610e658484848461176d565b50505050565b6060610e76826111c5565b610eb15760405162461bcd60e51b815260040180806020018281038252602f815260200180612289602f913960400191505060405180910390fd5b60008281526008602090815260409182902080548351601f6002600019610100600186161502019093169290920491820184900484028101840190945280845260609392830182828015610f465780601f10610f1b57610100808354040283529160200191610f46565b820191906000526020600020905b815481529060010190602001808311610f2957829003601f168201915b505060095493945050505060026000196101006001841615020190911604610f6f5790506106c7565b805115611040576009816040516020018083805460018160011615610100020316600290048015610fd75780601f10610fb5576101008083540402835291820191610fd7565b820191906000526020600020905b815481529060010190602001808311610fc3575b5050825160208401908083835b602083106110035780518252601f199092019160209182019101610fe4565b6001836020036101000a038019825116818451168082178552505050505050905001925050506040516020818303038152906040529150506106c7565b600961104b846117bf565b60405160200180838054600181600116156101000203166002900480156110a95780601f106110875761010080835404028352918201916110a9565b820191906000526020600020905b815481529060010190602001808311611095575b5050825160208401908083835b602083106110d55780518252601f1990920191602091820191016110b6565b6001836020036101000a03801982511681845116808217855250505050505090500192505050604051602081830303815290604052915050919050565b6000818152600a602052604081206109ad90611244565b6000828152600a60205260409020600201546111479061093a6111d2565b610a0a5760405162461bcd60e51b81526004018080602001828103825260308152602001806121576030913960400191505060405180910390fd5b6001600160a01b03918216600090815260056020908152604080832093909416825291909152205460ff1690565b60006109aa836001600160a01b03841661189a565b60006109ad6002836118e4565b3390565b600081815260046020526040902080546001600160a01b0319166001600160a01b038416908117909155819061120b82610ac5565b6001600160a01b03167f8c5be1e5ebec7d5bd14f71427d1e84f3dd0314c0f7b2291e5b200ac8c7c3b92560405160405180910390a45050565b60006109ad82611626565b600061125a826111c5565b6112955760405162461bcd60e51b815260040180806020018281038252602c81526020018061212b602c913960400191505060405180910390fd5b60006112a083610ac5565b9050806001600160a01b0316846001600160a01b031614806112db5750836001600160a01b03166112d084610762565b6001600160a01b0316145b806112eb57506112eb8185611182565b949350505050565b826001600160a01b031661130682610ac5565b6001600160a01b03161461134b5760405162461bcd60e51b81526004018080602001828103825260298152602001806122606029913960400191505060405180910390fd5b6001600160a01b0382166113905760405162461bcd60e51b81526004018080602001828103825260248152602001806121076024913960400191505060405180910390fd5b61139b83838361089a565b6113a66000826111d6565b6001600160a01b03831660009081526001602052604090206113c890826118f0565b506001600160a01b03821660009081526001602052604090206113eb90826118fc565b506113f860028284611908565b5080826001600160a01b0316846001600160a01b03167fddf252ad1be2c89b69c2b068fc378daa952ba7f163c4a11628f55a4df523b3ef60405160405180910390a4505050565b6000828152600a6020526040902061145790826111b0565b15610984576114646111d2565b6001600160a01b0316816001600160a01b0316837f2f8788117e7eff1d82e926ec794901d17c78024a50270940304540a733656f0d60405160405180910390a45050565b60006109aa838361191e565b6000828152600a602052604090206114cc9082611982565b15610984576114d96111d2565b6001600160a01b0316816001600160a01b0316837ff6391f5c32d9c69d2a47ea670b442974b53935d1edc7fd64eb21e047a839171b60405160405180910390a45050565b600061152882610ac5565b90506115368160008461089a565b6115416000836111d6565b600082815260086020526040902054600260001961010060018416150201909116041561157f57600082815260086020526040812061157f9161202b565b6001600160a01b03811660009081526001602052604090206115a190836118f0565b506115ad600283611997565b5060405182906000906001600160a01b038416907fddf252ad1be2c89b69c2b068fc378daa952ba7f163c4a11628f55a4df523b3ef908390a45050565b60008080806115f986866119a3565b9097909650945050505050565b6000611613848484611a1e565b90505b9392505050565b80546001019055565b5490565b6001600160a01b038216611685576040805162461bcd60e51b815260206004820181905260248201527f4552433732313a206d696e7420746f20746865207a65726f2061646472657373604482015290519081900360640190fd5b61168e816111c5565b156116e0576040805162461bcd60e51b815260206004820152601c60248201527f4552433732313a20746f6b656e20616c7265616479206d696e74656400000000604482015290519081900360640190fd5b6116ec6000838361089a565b6001600160a01b038216600090815260016020526040902061170e90826118fc565b5061171b60028284611908565b5060405181906001600160a01b038416906000907fddf252ad1be2c89b69c2b068fc378daa952ba7f163c4a11628f55a4df523b3ef908290a45050565b60006109aa836001600160a01b038416611ae8565b6117788484846112f3565b61178484848484611b00565b610e655760405162461bcd60e51b81526004018080602001828103825260328152602001806120d56032913960400191505060405180910390fd5b6060816117e457506040805180820190915260018152600360fc1b60208201526106c7565b8160005b81156117fc57600101600a820491506117e8565b60608167ffffffffffffffff8111801561181557600080fd5b506040519080825280601f01601f191660200182016040528015611840576020820181803683370190505b50859350905060001982015b831561189157600a840660300160f81b8282806001900393508151811061186f57fe5b60200101906001600160f81b031916908160001a905350600a8404935061184c565b50949350505050565b60006118a68383611ae8565b6118dc575081546001818101845560008481526020808220909301849055845484825282860190935260409020919091556109ad565b5060006109ad565b60006109aa8383611ae8565b60006109aa8383611c68565b60006109aa838361189a565b600061161384846001600160a01b038516611d2e565b815460009082106119605760405162461bcd60e51b81526004018080602001828103825260228152602001806120846022913960400191505060405180910390fd5b82600001828154811061196f57fe5b9060005260206000200154905092915050565b60006109aa836001600160a01b038416611c68565b60006109aa8383611dc5565b8154600090819083106119e75760405162461bcd60e51b81526004018080602001828103825260228152602001806122126022913960400191505060405180910390fd5b60008460000184815481106119f857fe5b906000526020600020906002020190508060000154816001015492509250509250929050565b60008281526001840160205260408120548281611ab95760405162461bcd60e51b81526004018080602001828103825283818151815260200191508051906020019080838360005b83811015611a7e578181015183820152602001611a66565b50505050905090810190601f168015611aab5780820380516001836020036101000a031916815260200191505b509250505060405180910390fd5b50846000016001820381548110611acc57fe5b9060005260206000209060020201600101549150509392505050565b60009081526001919091016020526040902054151590565b6000611b14846001600160a01b0316611e99565b611b20575060016112eb565b6060611c2e630a85bd0160e11b611b356111d2565b88878760405160240180856001600160a01b03168152602001846001600160a01b0316815260200183815260200180602001828103825283818151815260200191508051906020019080838360005b83811015611b9c578181015183820152602001611b84565b50505050905090810190601f168015611bc95780820380516001836020036101000a031916815260200191505b5095505050505050604051602081830303815290604052906001600160e01b0319166020820180516001600160e01b0383818316178352505050506040518060600160405280603281526020016120d5603291396001600160a01b0388169190611e9f565b90506000818060200190516020811015611c4757600080fd5b50516001600160e01b031916630a85bd0160e11b1492505050949350505050565b60008181526001830160205260408120548015611d245783546000198083019190810190600090879083908110611c9b57fe5b9060005260206000200154905080876000018481548110611cb857fe5b600091825260208083209091019290925582815260018981019092526040902090840190558654879080611ce857fe5b600190038181906000526020600020016000905590558660010160008781526020019081526020016000206000905560019450505050506109ad565b60009150506109ad565b600082815260018401602052604081205480611d93575050604080518082018252838152602080820184815286546001818101895560008981528481209551600290930290950191825591519082015586548684528188019092529290912055611616565b82856000016001830381548110611da657fe5b9060005260206000209060020201600101819055506000915050611616565b60008181526001830160205260408120548015611d245783546000198083019190810190600090879083908110611df857fe5b9060005260206000209060020201905080876000018481548110611e1857fe5b600091825260208083208454600290930201918255600193840154918401919091558354825289830190526040902090840190558654879080611e5757fe5b60008281526020808220600260001990940193840201828155600190810183905592909355888152898201909252604082209190915594506109ad9350505050565b3b151590565b6060611613848460008585611eb385611e99565b611f04576040805162461bcd60e51b815260206004820152601d60248201527f416464726573733a2063616c6c20746f206e6f6e2d636f6e7472616374000000604482015290519081900360640190fd5b60006060866001600160a01b031685876040518082805190602001908083835b60208310611f435780518252601f199092019160209182019101611f24565b6001836020036101000a03801982511681845116808217855250505050505090500191505060006040518083038185875af1925050503d8060008114611fa5576040519150601f19603f3d011682016040523d82523d6000602084013e611faa565b606091505b5091509150611fba828286611fc5565b979650505050505050565b60608315611fd4575081611616565b825115611fe45782518084602001fd5b60405162461bcd60e51b8152602060048201818152845160248401528451859391928392604401919085019080838360008315611a7e578181015183820152602001611a66565b50805460018160011615610100020316600290046000825580601f106120515750610aac565b601f016020900490600052602060002090810190610aac91905b8082111561207f576000815560010161206b565b509056fe456e756d657261626c655365743a20696e646578206f7574206f6620626f756e6473416363657373436f6e74726f6c3a2073656e646572206d75737420626520616e2061646d696e20746f206772616e744552433732313a207472616e7366657220746f206e6f6e20455243373231526563656976657220696d706c656d656e7465724552433732313a207472616e7366657220746f20746865207a65726f20616464726573734552433732313a206f70657261746f7220717565727920666f72206e6f6e6578697374656e7420746f6b656e416363657373436f6e74726f6c3a2073656e646572206d75737420626520616e2061646d696e20746f207265766f6b654552433732313a20617070726f76652063616c6c6572206973206e6f74206f776e6572206e6f7220617070726f76656420666f7220616c6c4552433732313a2062616c616e636520717565727920666f7220746865207a65726f20616464726573734552433732313a206f776e657220717565727920666f72206e6f6e6578697374656e7420746f6b656e456e756d657261626c654d61703a20696e646578206f7574206f6620626f756e64734552433732313a20617070726f76656420717565727920666f72206e6f6e6578697374656e7420746f6b656e4552433732313a207472616e73666572206f6620746f6b656e2074686174206973206e6f74206f776e4552433732314d657461646174613a2055524920717565727920666f72206e6f6e6578697374656e7420746f6b656e4552433732313a20617070726f76616c20746f2063757272656e74206f776e65724552433732313a207472616e736665722063616c6c6572206973206e6f74206f776e6572206e6f7220617070726f766564416363657373436f6e74726f6c3a2063616e206f6e6c792072656e6f756e636520726f6c657320666f722073656c66a2646970667358221220e21dac8c5498e89096c488051ad78fbbd330d69ae02b8780385c09439ac4cc6664736f6c63430007040033a49807205ce4d355092ef5a8a18f56e8913cf4a201fbe287825b095693c21775",
  "linkReferences": {},
  "deployedLinkReferences": {}
}